S0130000506561726C5F426C696E6B792E73333725
S113000000000420DD0100000902000009020000D4
S113001009020000090200000902000009020000B0
S113002009020000090200000902000009020000A0
S11300300902000009020000090200000902000090
S11300400902000009020000090200000902000080
S11300500902000009020000090200000902000070
S11300600902000009020000090200000902000060
S11300700902000009020000090200000902000050
S11300800902000009020000090200000902000040
S11300900902000009020000090200000902000030
S11300A0090200000902000009020000452E0000B8
S11300B00902000009020000090200000902000010
S11300C00902000009020000090200000902000000
S11300D009020000090200000902000009020000F0
S11300E009020000090200000902000009020000E0
S11300F009020000090200000902000009020000D0
S113010009020000090200000902000010B5054CB4
S1130110237833B9044B13B10448AFF300800123AF
S1130120237010BD8000002000000000583800003B
S1130130084B10B51BB108480849AFF300800848C4
S1130140036803B910BD074B002BFBD0BDE810407A
S1130150184700BF00000000583800008400002049
S11301607C00002000000000154B002B08BF134B3F
S11301709D46A3F5803A00218B460F461348144A46
S1130180121A03F02BFB0F4B002B00D098470E4B99
S1130190002B00D098470020002104000D000D48DA
S11301A0002802D00C48AFF3008003F0F1FA2000DD
S11301B0290002F0AFFE03F0D7FA00BF00000800E8
S11301C00000042000000000000000008000002067
S11301D0C80000200000000000000000064880471E
S11301E00649074A074B9A42BEBF51F8040B42F82E
S11301F0040BF8E7FFF7B8FFED02000064380000D5
S11302000000002080000020FEE700BF80B582B01F
S113021000AF00F027F878600A4BD3F808210A4BA6
S113022013401B0A3B603B6801337A68B2FBF3F36B
S11302307B60064A7B6813607B6818460837BD46B6
S113024080BD00BF00400E4000FF010008000020F8
S113025080B400AF024B1846BD465DF8047B70477E
S1130260005A620280B483B000AF164BD3F89430C6
S113027003F00703032B08D0042B02D0022B08D071
S11302800BE0114B1B687B600BE04FF400437B6079
S113029007E00E4B1B687B6003E00D4B1B687B6023
S11302A000BF084BD3F8003103F4F8531B0A0133A1
S11302B07A68B2FBF3F318460C37BD465DF8047B4D
S11302C0704700BF00400E400400002000000020E2
S11302D00C00002080B400AF034B1B681846BD46D9
S11302E05DF8047B704700BF0000002080B400AFBD
S11302F0074B084A9A60064A054BD3F8883043F402
S11303007003C2F88830BD465DF8047B704700BFB7
S113031000ED00E00000000080B400AF4FF40043A3
S11303201846BD465DF8047B704700BF80B400AF3B
S11303304FF47A731846BD465DF8047B704700BFDE
S113034080B400AF034B1B681846BD465DF8047BC0
S1130350704700BF0400002080B487B000AFF8608D
S1130360B9607A60FB6803F10473DA00BB68134474
S11303709B007B617B697A681A601C37BD465DF817
S1130380047B704780B485B000AF786039607B68C7
S113039003F10473DA003B6813449B00FB60FB68C1
S11303A01B6818461437BD465DF8047B704700BFD0
S11303B080B483B000AF78607B68012202FA03F353
S11303C018460C37BD465DF8047B704780B584B091
S11303D000AF78607B680133B3FA83F3DBB2C3F117
S11303E01F03FB60F868FFF7E3FFFB68184610374C
S11303F0BD4680BD80B500AF00BF04481221FFF7A1
S1130400C1FF0346002BF8D180BD00BF04300E406D
S113041080B500AFFFF7EEFF034B5B6803F4403396
S11304201B0CDBB2184680BD00300E4080B584B092
S113043000AF78600123FB607B68124A934204D8C2
S11304400023FB600023BB6008E07B680E4A9342F4
S113045002D80123BB6001E00223BB600B481021DA
S1130460FA68FFF779FF0949084BD3F8003123F004
S11304708072BB681B061343C1F800311037BD46B8
S113048080BD00BF0048E8010090D00300400E404A
S113049080B483B000AF054B1B687B607B68184653
S11304A00C37BD465DF8047B704700BF1000002088
S11304B080B582B000AFFFF7D5FE7860064BD3F865
S11304C0003103F4F8531B0A01337A6802FB03F387
S11304D018460837BD4680BD00400E4080B582B046
S11304E000AF0D4800F058FC0346FB70FB78072B67
S11304F005D0092B07D1FFF7B5FE786006E0FFF7BA
S1130500C7FF786002E000237B6000BF7B68184669
S11305100837BD4680BD00BF06000E0080B584B01C
S113052000AF78607B68002B1CD11B4800F034FCC2
S11305300346FB7200BFFB7A013B072B23D801A2C1
S113054052F823F0690500008705000087050000C4
S11305507705000087050000870500006F0500008F
S11305607F050000002312E00023FB600EE0FFF78C
S11305708FFFF8600AE0FFF7ADFEF86006E0FFF7D2
S113058097FFF86002E00023FB6000BFFB68184699
S11305901037BD4680BD00BFB800320080B485B0BE
S11305A000AF786039601D4B5B6803F04073FB60FB
S11305B00023BB6013E01A4ABB68DB0013441A79BA
S11305C03B68DBB29A4207D1154ABB6852F8332024
S11305D07B689A4200D305E0BB680133BB60BB680B
S11305E0042BE8D9BB68052B02D10323FB6005E08B
S11305F00B4ABB68DB0013445B79FB60FB681B069A
S1130600FB600649054B5B6823F04072FB681343AB
S11306104B601437BD465DF8047B704700000E4004
S11306200838000080B582B000AF0D4B1B6C002B66
S113063014BF01230023FB71094B41F671321A6484
S1130640FFF706FE034618460021FFF7A7FFFB79D4
S1130650002B02D0024B00221A640837BD4680BD2D
S113066000000E4080B584B000AF786039600C4B58
S11306701B6C002B14BF01230023FB73084B41F6B2
S113068071321A6478683968FFF788FFFB7B002BA6
S113069002D0034B00221A641037BD4680BD00BF50
S11306A000000E4080B487B000AF78600F237B61F8
S11306B07B6803333B617B69FB60FA683B69934267
S11306C028BF1346BB60BB681B07BB60BB681846EA
S11306D01C37BD465DF8047B704700BF80B400AF93
S11306E0044B5B6A03F030031B091846BD465DF8F2
S11306F0047B704700400E4080B483B000AF786044
S11307000649064B5B6A23F030027B681B011343E6
S11307104B620C37BD465DF8047B704700400E40C9
S113072090B585B000AF78600023BB607B68354A24
S1130730934206D0344A934203D0344A934200D0C1
S113074000E000BF786800F027FB0346FB607B688D
S11307502C4A93420DD02C4A934211D02B4A9342F7
S113076000D014E02A4BD3F8803003F00703FB6079
S11307700DE0274BD3F8843003F00703FB6006E059
S1130780234BD3F8883003F00703FB6000BFFB68FA
S1130790042B2ED801A252F823F000BFED0700006D
S11307A0B1070000B9070000C9070000C107000035
S11307B0FFF7B2FDB8601FE0FFF7C2FDB8601BE0B1
S11307C0FFF7B4FDB86017E0FFF720FD0446104BB7
S11307D0D3F8003103F080731B0E01331846FFF782
S11307E0E7FD0346B4FBF3F3BB6005E00023BB6005
S11307F002E00023BB6000BFBB6818461437BD4647
S113080090BD00BF030020000500240002001E006C
S113081000400E4080B483B000AF78600A4BD3F838
S1130820443103F00103002B00D007E000BF064B66
S1130830D3F840217B681340002BF8D10C37BD4618
S11308405DF8047B704700BF00400E4080B400AFE9
S1130850BD465DF8047B704780B400AFBD465DF8CB
S1130860047B704780B586B000AF78600B46FB70A0
S113087000233B617B681B0A03F00F03013B092B38
S113088044D801A252F823F0B1080000BD080000CA
S11308900D0900000D090000B7080000C30800009E
S11308A0CD0800000D090000D7080000E30800008F
S11308B0184B7B6118E0184B7B6115E0174B7B618B
S11308C012E0174B7B6101233B610DE0154B7B610B
S11308D010233B6108E0144B7B614FF480333B6190
S11308E002E0124B7B6100BF7B681B0B03F01F030C
S11308F0FB603B69002B02D03869FFF78BFFFB7864
S11309007869F9681A46FFF727FD00E000BF183739
S1130910BD4680BD00400E40B0400E40C0400E4079
S1130920E0400E40E8400E40F0400E4050410E4082
S113093080B584B000AF78607B6803F47813B3F5B6
S1130940A01F7DD0B3F5A01F1AD8B3F5202F50D027
S1130950B3F5202F08D8B3F5003F4ED0B3F5802F60
S113096038D0002B32D0D8E0B3F5602F00F0C88027
S1130970B3F5801F00F0C880B3F5402F4CD0CCE015
S1130980B3F5001F00F08B80B3F5001F0AD8B3F550
S1130990D01F00F08980B3F5F01F4CD0B3F5B01F21
S11309A05CD0BAE0B3F5381F6AD0B3F5381F04D869
S11309B0B3F5101F00F09F80AFE0B3F5401F00F0C7
S11309C08680B3F5481F00F0A380A6E0FFF74AFC39
S11309D0F860A5E0FFF746FCF860544BD3F80C210F
S11309E0534B13401B0A0133FA68B2FBF3F3FB6069
S11309F096E0FFF737FCF86092E0FFF733FCF8600D
S1130A004A4BD3F808214A4B13401B0A0133FA68B6
S1130A10B2FBF3F3FB6083E0FFF724FCF860434B85
S1130A20D3F8143103F4F8531B0A0133FA68B2FB08
S1130A30F3F3FB6074E03F48FFF772FEF8606FE089
S1130A403D48FFF76DFEF860384BD3F8303103F0C2
S1130A5003031A46FB68D340FB6061E03548FFF7A7
S1130A605FFEF860314BD3F8203103F00F031846D2
S1130A70FFF79EFC0246FB68B3FBF2F3FB604FE01A
S1130A802C48FFF74DFEF860284BD3F8203103F0D3
S1130A9030031B091A46FB68D340FB6040E027483B
S1130AA0FFF73EFEF8603BE02448FFF739FEF860AC
S1130AB01E4BD3F8283103F030031B091846FFF707
S1130AC077FC0246FB68B3FBF2F3FB6028E01B48AB
S1130AD0FFF726FEF860154BD3F8283103F4407372
S1130AE01B0A04331846FFF763FC0246FB68B3FB9A
S1130AF0F2F3FB6014E01048FFF712FEF8600FE019
S1130B00FFF7ECFCF8600BE0FFF7C2FCF86007E0CD
S1130B100020FFF703FDF86002E00023FB6000BF44
S1130B20FB6818461037BD4680BD00BF00400E402C
S1130B3000FF010002001E00050024000300200045
S1130B4080B584B000AF786039607B681B0903F01E
S1130B500F03FB60FB68013B092B00F2088101A233
S1130B6052F823F08D0B0000D90B00006F0D00002C
S1130B70F10B00006F0D00006F0D00000D0C000064
S1130B80550C0000D50C0000450D0000FFF74AFD90
S1130B907948FFF74BFCFFF759FE7849774BD3F8B8
S1130BA0003123F4F8523B681B021343C1F80031AF
S1130BB0FFF72CFBB860FFF72BFC0346B868194617
S1130BC0FFF750FD6E48FFF7B3FE03461846FFF7E4
S1130BD02DFCFFF741FECBE06849684BD3F8143194
S1130BE023F4F8523B681B021343C1F81431BFE0ED
S1130BF06249624BD3F80C3123F4FF3323F480733E
S1130C003A6812021343C1F80C31B1E0FFF70AFD50
S1130C105948FFF70BFC5949584BD3F8083123F4D2
S1130C20FF3323F480733A6812021343C1F8083186
S1130C30FFF7ECFAB860FFF7EBFB0346B868194618
S1130C40FFF710FD4E48FFF773FE03461846FFF703
S1130C50EDFB8DE07B684B4A934215D04A4A9342A0
S1130C6024D04A4A934200D033E04FF48020FFF767
S1130C70D1FD4249414BD3F8303123F003023B68A4
S1130C801343C1F8303124E03868FFF79FFB386024
S1130C900420FFF7BFFD3949384BD3F8203123F046
S1130CA00F023B681343C1F8203112E03868FFF7A4
S1130CB08DFB38600420FFF7ADFD30492F4BD3F88E
S1130CC0203123F030023B681B011343C1F820316B
S1130CD000BF4DE07B682E4A934203D02D4A9342D5
S1130CE013D02EE03868FFF771FB38604020FFF71F
S1130CF091FD2249214BD3F8283123F030023B687F
S1130D001B011343C1F828311BE03B687F2B03D838
S1130D103B680E2B00D900BF3868FFF757FB03462A
S1130D20043B3B604020FFF775FD1449134BD3F897
S1130D30283123F440723B681B021343C1F8283165
S1130D4000BF15E07B68114A934200D00EE04FF4D7
S1130D508020FFF75FFD0949084BD3F8303123F0B9
S1130D6003023B681343C1F8303100BF00E000BF09
S1130D701037BD4680BD00BF0148E80100400E4069
S1130D8000250A008006160080162E00A009140013
S1130D9090171A009027300080B485B000AF7860B7
S1130DA00123FB737B6803F00F03BB60BB68013B4B
S1130DB0072B00F2C48001A252F823F0DD0D0000DD
S1130DC0330E0000630E00003F0F0000A90E000068
S1130DD0D90E00003F0F0000FD0E00005D4BD3F85C
S1130DE0943003F00703023B052B1ED801A252F8EE
S1130DF023F000BF190E0000130E00000D0E0000BA
S1130E001F0E00002B0E0000250E00000223FB73B2
S1130E100EE00323FB730BE00423FB7308E00B23B6
S1130E20FB7305E00C23FB7302E00523FB7300BF97
S1130E3088E0484BD3F8803003F00703022B06D038
S1130E40042B07D0012B08D10323FB7308E00223F2
S1130E50FB7305E00A23FB7302E00123FB7300BF6D
S1130E6070E03C4BD3F8843003F00703013B032BC1
S1130E7016D801A252F823F0890E00008F0E00004C
S1130E809B0E0000950E00000323FB730BE002236E
S1130E90FB7308E00A23FB7305E00623FB7302E0FF
S1130EA00123FB7300BF4DE02A4BD3F8883003F0D5
S1130EB00703022B06D0042B07D0012B08D10323F0
S1130EC0FB7308E00223FB7305E00A23FB7302E0D3
S1130ED00123FB7300BF35E01E4B1B6F03F00103BE
S1130EE0002B04D0012B05D10923FB7305E0072354
S1130EF0FB7302E00123FB7300BF23E0154BD3F81F
S1130F005C3103F03003102B0CD0102B02D8002BD3
S1130F1005D010E0202B08D0302B09D00BE00123A2
S1130F20FB730BE00723FB7308E00423FB7305E06A
S1130F300823FB7302E00123FB7300BF02E00023DC
S1130F40FB7300BFFB7B18461437BD465DF8047B7A
S1130F50704700BF00400E4080B58AB000AF786093
S1130F600B46FB7003237B62032387F823300023A3
S1130F70BB6100237B617B68112B19D1FB78042BA7
S1130F8003D1FFF7A7F978610BE0FB78052B08D1B3
S1130F9000F05AF90246A44B9A4202D900F054F9DF
S1130FA078617B69002B03D07869002100F0B6FDDD
S1130FB07B6803F00F033B613B69013B072B00F2A5
S1130FC0298101A252F823F0E90F0000DD1000008E
S1130FD0EF10000015120000E11000008511000060
S1130FE015120000A3110000FB78023B0A2B00F24B
S1130FF0138101A252F823F02510000031100000E3
S11310003D1000004F1000001912000019120000DA
S113101019120000191200001912000061100000DA
S11310206D10000004237B62002387F8233023E043
S113103003237B62012387F823301DE002237B62B4
S1131040022387F823307948FFF7F0F914E00123ED
S11310507B62032387F823307448FFF7E7F90BE03A
S113106005237B62032387F8233005E007237B6293
S1131070062387F8233000BF97F82330062B06D0C9
S113108097F8233018460121012200F05BF9FFF79D
S1131090C9FAFFF7DBFB7B69002B01D0FFF7AAF944
S11310A0634A7B6A53676348FFF742FC034618466A
S11310B0FFF7BCF9FFF7AAF8F860FFF7A9F90346B0
S11310C0F8681946FFF7CEFA7B69002B03D100209C
S11310D0012100F023FDFFF7BFFBA2E0564BBB61EB
S11310E0BB69002B01D0BB6900E0544BBB61BB69F9
S11310F0002B01D0BB6900E0514BBB61FB78013B85
S1131100092B00F28B8001A252F823F03511000064
S11311103B1100004B1100001D1200001D120000C5
S11311205B1100001D1200001D1200001D120000C2
S1131130771100000023FB6120E00020012101223F
S113114000F000F90223FB6118E0012001210122D3
S113115000F0F8F80123FB6110E0FFF757F80346AD
S11311601846FFF763F9374802210122FFF7F4F824
S11311700323FB6102E00423FB6100BFBB69FA693E
S11311801A604EE0FB78072B02D0092B04D048E00C
S1131190274B00221A6703E0254B01221A6700BF80
S11311A03FE0FB78013B072B3AD801A252F823F029
S11311B0D11100002112000021120000E7110000EB
S11311C02112000021120000D7110000F7110000C5
S11311D00023FB6112E004200121012200F0B2F897
S11311E00123FB610AE002200121012200F0AAF898
S11311F00223FB6102E00323FB6100BF0C490C4B9B
S1131200D3F85C3123F03002FB691B011343C1F8AE
S11312105C3106E000BF04E000BF02E000BF00E074
S113122000BF2837BD4680BD002D31010148E801CB
S113123000400E4000250A0080400E4088400E40C9
S113124084400E40B0400E4080B400AF034B1B6896
S11312501846BD465DF8047B704700BF0C000020B3
S1131260B0B584B000AF78601120FFF795FD02207F
S11312700021012200F066F87B685B7883F00103AB
S1131280DBB2002B0ED07B689B7883F00103DBB2CA
S1131290002B07D07B68DB7883F00103DBB2002BE3
S11312A000D000BF0023FB607B681B7C022B01D1B4
S11312B00123FB602149214B5B6A23F00102FB6897
S11312C013434B627B681B781D4808211A46FFF7BD
S11312D043F81A497B689B88DB027A68527A134385
S11312E0CB62164D154B1B6B03F07F627B68DB886A
S11312F0DB0213437A68927A1A437B681B7ADB0118
S113130042EA03047B681B7A1846FFF7CBF90346CD
S113131023432B6309497B685B7B1A037B689B7BB4
S11313201B0113437A68D27B1A437B681B7B1B0423
S113133013434B631037BD46B0BD00BF00400E40A1
S113134024400E4080B588B000AF0346FB710B46C5
S1131350BB7113467B71FB79042B00F2B88001A2A8
S113136052F823F0C1130000AF1300008B130000E8
S1131370791300009D13000001237B6102233B616C
S11313800123FB610023BB6125E004237B61082367
S11313903B610323FB610223BB611CE010237B61DF
S11313A020233B610523FB610423BB6113E040233D
S11313B07B6180233B610723FB610623BB610AE059
S11313C04FF480737B614FF400733B610923FB612D
S11313D00823BB6100BFBB79002B5BD00023FB73E8
S11313E0FB79022B11D1FFF779F90346002B0CD1BD
S11313F0394BDB6B0123FB73384B5B6A03F001034E
S1131400002B02D00120FFF777F9344A7B69136679
S113141000BF3348B969FEF7B5FF0346002BF8D087
S11314207B79002B35D000BF2D48F969FEF7AAFF60
S11314300346002BF8D0FB79022B2AD1FB7B002B2F
S113144027D0264B5B6A03F00103002B05D0022052
S11314502021012200F04AF903E00220002100F0DB
S1131460FBF8022000F03EF8B860022000210122BF
S1131470FFF768FF0220B96800F06EF8174A7B692D
S1131480136600BF1648F969FEF77CFF0346002B7C
S1131490F8D01DE0114A3B69136600BF0F4BD3F827
S11314A09030BA69012101FA02F21340002BF5D100
S11314B07B79002B0CD000BF084BD3F89030FA692D
S11314C0012101FA02F21340002BF5D100E000BF24
S11314D02037BD4680BD00BF00300E4000400E40A6
S11314E090400E4080B485B000AF0346FB71FB7999
S11314F0013B032B23D801A252F823F00D15000061
S1131500311500001915000025150000114B1B6A48
S1131510C3F30803FB6015E00E4B1B6903F07F0364
S1131520FB600FE00B4B9B6903F07F03FB6009E05A
S1131530084BD3F89C30C3F30A03FB6002E000239A
S1131540FB6000BFFB6818461437BD465DF8047B9A
S1131550704700BF00400E4080B584B000AF034622
S11315603960FB71FB79013B032B6AD801A252F865
S113157023F000BF8515000007160000B315000016
S1131580DD1500003B68C3F308033B6000BF2F4830
S11315901A21FEF7F7FE0346002BF8D12C492C4BF9
S11315A01B6A23F4FF7323F001033A6813430B62AD
S11315B048E03B6803F07F033B6000BF23481821E9
S11315C0FEF7E0FE0346002BF8D12149204B1B69AE
S11315D023F07F023B6813430B6133E03B6803F065
S11315E07F033B6000BF19481921FEF7CBFE034679
S11315F0002BF8D11649164B9B6923F07F023B68F8
S113160013438B611EE0124BD3F89030104A104BF9
S11316105B6A23F0300343F0100353623B6803F426
S1131620F063DB091846FFF73DF8F8600849084BFA
S11316301A6B084B13403A681A43FB6813430B6355
S113164000E000BF1037BD4680BD00BF40410E40E2
S113165000400E4000F8FF0F80B584B000AF034691
S11316600A46FB711346BB71FFF738F80346002B9B
S113167003D14FF44003FB6016E0BB79202B04D068
S1131680302B0AD0002B04D00BE04FF40003FB6096
S11316900AE04FF44003FB6006E04FF44003FB60B4
S11316A002E0104BFB6000BF00BF0F4BD3F890204B
S11316B0FB681A40FB689A42F7D1FB6803F4800385
S11316C0002B0AD0084BD3F8A03003F48063002B1E
S11316D014BF01230023DBB200E0012318461037B6
S11316E0BD4680BDFF33E10700400E4080B582B0A7
S11316F000AF0346FB710B46BB7113467B71FB794C
S1131700022B00D016E0BB79002B07D00C4B4FF412
S11317108062C3F8A8200A4ABB7953667B79002B00
S113172007D0FA79BB7910461946FFF795FF0346AF
S113173001E000BF012318460837BD4680BD00BF45
S113174000400E4080B400AF72B6BD465DF8047B25
S1131750704700BF80B400AF62B6BD465DF8047B3D
S1131760704700BF80B500AFFEF750FD80BD00BFDD
S113177080B487B000AFF860B9607A60FB6803F1A9
S11317800473DA00BB6813449B007B617B697A684D
S11317901A601C37BD465DF8047B704780B485B081
S11317A000AF786039607B6803F10473DA003B684A
S11317B013449B00FB60FB681B6818461437BD4646
S11317C05DF8047B704700BF80B500AF00BF0448DC
S11317D01221FFF7E3FF0346002BF8D180BD00BFC1
S11317E004300E4080B500AFFFF7EEFF034B5B689B
S11317F003F440331B0CDBB2184680BD00300E40AE
S113180080B483B000AF7860034A7B68D3620C373E
S1131810BD465DF8047B704700300E4080B400AFD5
S1131820034B5B6A1846BD465DF8047B704700BFF6
S113183000300E4080B400AF034B0022C3F8802177
S1131840BD465DF8047B704700400E4080B400AF95
S1131850044B45F60E02C3F88021BD465DF8047BB7
S1131860704700BF00400E4080B483B000AF034611
S1131870FB71FB79C3F102031A4610239340184607
S11318800C37BD465DF8047B704700BF90B585B04A
S113189000AF0346FB71FB79002B1AD1474BD3F8F9
S11318A09030474A13601120FFF776FA03461A4630
S11318B0444B1A70FFF788FF434B5B6803F44033D3
S11318C01B0CDAB2414B1A703C4B1B69404A136043
S11318D070E03D4C3D4B1B781846FFF7C5FF0346AF
S11318E02361364BD3F8803103F00103FB60FFF72B
S11318F0ADFF0023BB60324B1B6803F00103BA68E1
S11319001343BB602E4B1B6803F01003BA681343E8
S1131910BB602B4B1B6803F04003BA681343BB60E6
S1131920274B1B6803F00403BA681343BB60244BC2
S11319301B6803F48073BA681343BB601F4ABB6817
S11319401366FFF741FF204B1B6803F01003002BC5
S113195018D000BF194BD3F8403103F08073002B2B
S1131960F8D1164A1A4B1B681361164B1B78052BCA
S113197008D1184B1C68FFF735FF0346204619466B
S1131980FEF770FE0F4B1B78052B05D00D4B1B7813
S113199011201946FFF7E0FA094B1B6803F0010315
S11319A0002B02D1054B02221A66FB68002B01D0E2
S11319B0FFF740FF1437BD4690BD00BF00400E4006
S11319C0A8000020AC00002000300E40AD00002034
S11319D0B00000200C00002080B582B000AFFFF7FB
S11319E0F3FE104B1B6803F440731B0A7B600D4B22
S11319F05B6803F440331B0C3B607A683B689A4293
S1131A0006D9084A074B1B6843F01003136005E02E
S1131A10044A044B1B6823F0100313600837BD46C7
S1131A2080BD00BF00300E4080B483B000AF0B4BCC
S1131A301B6803F01003002B0BD0094B1B6903F444
S1131A40F8131B0C7B607B68082B02D1054B064AFC
S1131A501A600C37BD465DF8047B704700300E40B9
S1131A6000400E400C000020C0EA210180B582B085
S1131A7000AF0346FB71FB79002B02D00020FFF777
S1131A8005FFFFF7A9FF0A4A094B1B6943F004034A
S1131A90136130BFFB79002B03D00120FFF7F6FE62
S1131AA003E0FFF7C1FFFFF75DFE0837BD4680BDC9
S1131AB000ED00E080B584B000AF0346FB71FB7914
S1131AC0002B02D00020FFF7E1FEFFF785FF114B4A
S1131AD0D3F8803103F00103FB60FFF7B7FEFB6826
S1131AE0002B01D0FFF7A6FE0B4A0B4B1B6943F0FA
S1131AF00403136130BFFB79002B03D00120FFF7EF
S1131B00C5FE03E0FFF790FFFFF72CFE1037BD463C
S1131B1080BD00BF00400E4000ED00E080B584B001
S1131B2000AF78600B46FB70154BD3F8003103F41B
S1131B30F8531B0A0133BB607B68002B07D1FEF707
S1131B4091FB0246BB6803FB02F3FB6001E07B6888
S1131B50FB600C4B1B78002B09D0FB680A4A9342AC
S1131B6005D8FB780220194600F010F804E0FB7851
S1131B700020194600F00AF81037BD4680BD00BFAA
S1131B8000400E40A4000020FF2C310190B587B026
S1131B9000AF03460A46FB711346BB711A4BD3F8D8
S1131BA0003103F4F8531B0A01337B61FEF75AFB3F
S1131BB03861FFF717FE0346FB73FA7BFB799A4201
S1131BC000D11EE03B697A6902FB03F3BB60FB7939
S1131BD0022B03D138690221FEF744FD0B4CFB793B
S1131BE01846FFF741FE03462361BB79002B01D061
S1131BF0FFF7EAFDFB79002B03D138690021FEF7DA
S1131C0031FD1C37BD4690BD00400E4000300E40F3
S1131C1080B400AF01231846BD465DF8047B7047CD
S1131C2080B582B000AF0C4A0B4BDB6E43F080737F
S1131C30D3660A480021FFF7B1FD78607B68002B6A
S1131C4003D0042000F0B4FC02E0002000F0B0FC5B
S1131C500837BD4680BD00BF00300E404C300E40FA
S1131C6080B48BB000AF01237B627B6A1B053B62AF
S1131C70314BDB6C03F470631B0AFB612F4B1B8835
S1131C801A462E4B1B8828335B08134403F12801A2
S1131C90FB695A1C13469B001344B1FBF3F3013B4D
S1131CA0BB61BB697B6107233B613A697B699342F2
S1131CB028BF1346BB61BB691B06BB611E481E4B94
S1131CC0DB6C23F0EE62B9693B6A0B431343C364D4
S1131CD01B4B1B881BB2002B28DB194B1B88FB8179
S1131CE0FA89FB8928335B08134403F12802FB6952
S1131CF001335900FB6901335B080B44B2FBF3F376
S1131D00BB60BB687B6007233B603A687B68934297
S1131D1028BF1346BB60BB681B01BB600649064B6A
S1131D201B6D23F07002BB6813430B652C37BD4653
S1131D305DF8047B704700BF00300E409C0000201B
S1131D40A000002080B483B000AF78600B467B8095
S1131D507B689AB2044B1A80044A7B8813800C3740
S1131D60BD465DF8047B70479C000020A000002065
S1131D7080B483B000AF0346FB71FB79002B02D023
S1131D80012B04D007E0064B064A9A6503E0044B96
S1131D90054A9A6500BF0C37BD465DF8047B704761
S1131DA000300E4077402057372110B780B485B0FB
S1131DB000AF0346FB710B46BB7113467B712E4B80
S1131DC0D3F88031FB60BB79032B1FD801A252F8F2
S1131DD023F000BFE51D0000ED1D0000F91D00000B
S1131DE0051E0000FB68DBB2FB6011E0FB6803F436
S1131DF07F431B0AFB600BE0FB6803F47F031B0CAF
S1131E00FB6005E0FB681B0EFB6001E000232CE097
S1131E107B79002B11D1FB681B03FB60FB6823F467
S1131E207043002B01D000231FE01449134BDB6ED9
S1131E3023F47042FB681343CB667B79012B13D1E7
S1131E40FB681B03FB60FB6823F47043002B01D089
S1131E5000230AE00949094BD3F8EC3023F470421B
S1131E60FB681343C1F8EC30012318461437BD4610
S1131E705DF8047B704700BFB081E00F00300E4076
S1131E8080B489B000AFF860B96011461A460B46B9
S1131E90FB711346BB710023FB610023BB61BB795B
S1131EA01A02FB79002B01D0012300E00023134325
S1131EB07B617B6940F2011293422BD0B3F5817FA1
S1131EC007D2012B19D0012B4BD3B3F5807F55D00A
S1131ED07BE040F20122934229D040F20122934256
S1131EE003D8B3F5007F56D06FE0B3F5407F5FD0E1
S1131EF040F20132934227D067E0394BD3F8743172
S1131F00FB61FB6903F47F431B0ABB61FB69DBB222
S1131F10FB615AE0324BD3F87431FB61FB691B0E51
S1131F20BB61FB6903F47F031B0CFB614DE02C4B8D
S1131F30D3F87831FB61FB6903F47F431B0ABB616F
S1131F40FB69DBB2FB6140E0254BD3F87831FB61E0
S1131F50FB691B0EBB61FB6903F47F031B0CFB6174
S1131F6033E01F4BD3F86C31FB61FB6903F47F430F
S1131F701B0ABB61FB69DBB2FB6126E0184BD3F89B
S1131F806C31FB61FB691B0EBB61FB6903F47F03CE
S1131F901B0CFB6119E0124BD3F87031FB61FB6938
S1131FA003F47F431B0ABB61FB69DBB2FB610CE0FA
S1131FB00B4BD3F87031FB61FB691B0EBB61FB69F2
S1131FC003F47F031B0CFB6100BFFB68FA691A6012
S1131FD0BB68BA691A602437BD465DF8047B704754
S1131FE0B081E00F80B584B000AF0346FB7100BF41
S1131FF0364B9B6F03F00103002BF9D1334B1B6C61
S113200003F00303FB60FB68002B04D030480D2170
S11320100122FFF7ADFBFB68DBB2FA799A4209D1E2
S1132020FB79002B05D12A480D210022FFF7A0FBE4
S113203048E047E0FB68032B02D0FB68002B20D16B
S1132040FB79022B02D0FB79012B1AD14FF400202B
S1132050FFF7D6FB00BF1D4B9B6F03F00103002B62
S1132060F9D11A4A194B1B6C23F0030343F0010303
S1132070136400BFFFF7D2FB034603F40023002BD5
S1132080F8D000BF114B9B6F03F00103002BF9D173
S11320900E490E4B1B6C23F00302FB7913430B64B4
S11320A000BF0A4B9B6F03F00103002BF9D1FB79AE
S11320B0002B14BF01230023DBB205480D211A466F
S11320C0FFF756FB1037BD4680BD00BF00300E4001
S11320D054300E4080B584B000AF7860484B022283
S11320E09A63474B9B6B03F00F03022B01D0002331
S11320F081E0FFF78DFD7B685B78012B02D07B6864
S11321005B78022B7B68DB884A2B02D80023FB60B8
S113211015E07B68DB88B3F5FA7F03D24FF0805378
S1132120FB600CE07B68DB8840F6C312934203D863
S11321304FF00053FB6002E04FF04053FB60304827
S11321402F4BDB6C23F0405323F001037A68928910
S113215012B2002A01DB012100E00021FA680A43DF
S11321601343C364264A264BD3F8EC3043F440733C
S1132170C2F8EC30FFF754FD7B681B891A467B6874
S11321809B891BB210461946FFF7DCFD7B689A88D1
S11321901C4B1A807B689B88184600F09DF97B686D
S11321A09B7B1846FFF7E4FD7B685B88184601219A
S11321B0012200F02BF8034683F00103DBB2002B6D
S11321C001D0002317E00E4A0D4BDB6B43F4806310
S11321D0D3637B685B781846FFF704FF7B689B7AC0
S11321E0202B01D1012300E00023074805211A46D2
S11321F0FFF7BEFA012318461037BD4680BD00BF65
S113220000300E409E0000203C300E4090B595B04A
S113221000AF78600B46FB701346BB700023FB6471
S113222000237B6407F1240300221A600433002294
S11322301A60043300221A60043307F118030022E1
S11322401A60043300221A60043300221A60043333
S113225007F10C0300221A60043300221A600433CD
S113226000221A60043300233B810023BB727B6885
S1132270B3F5E16F06D37B6840F6B832934201D8D8
S1132280012300E0002387F8433097F8433003F03C
S1132290010387F8433097F8433083F00103DBB23E
S11322A0002B01D000230FE17B68B3F5E16F8CBFF5
S11322B00123002387F8423097F84230002B0AD0DC
S11322C04FF4E163FB6440F6B8337B647A6CFB6CD7
S11322D0D31ABB6409E04FF49663FB644FF4E163E3
S11322E07B647A6CFB6CD31ABB6497F84230002B86
S11322F00CD0774BD3F868313B623B6A1B0E7B6191
S11323003B6A03F47F031B0C3B620BE0704BD3F876
S113231068313B623B6A03F47F431B0A7B613B6A7F
S1132320DBB23B626B4BDB6C03F040531B0FDBB245
S11323303B723B7A07F1180007F10C0197F8422031
S1132340FFF79EFD634BD3F8EC3003F440731B0A94
S1132350DBB27B727C7A07F11803191D07F10C03B9
S11323601A1D97F84230084611461A462346FFF7CD
S113237087FD7A68FB6CD31A79693A6A8A1A02FB78
S113238003F2BB6CB2FBF3F3FB62FA6A3B6A1344DD
S1132390FB627A68FB6CD31AF968BA698A1A02FB81
S11323A003F2BB6CB2FBF3F37B627A6ABB6913443E
S11323B07B627A68FB6CD31A3969FA698A1A02FB60
S11323C003F2BB6CB2FBF3F3BB62BA6AFB6913445E
S11323D0BB62FA6A7B699A4213D8FA6A3B6A9A42E8
S11323E00FD3BA6A3B699A420BD8BA6AFB699A421C
S11323F007D37A6AFB689A4203D87A6ABB699A421D
S113240001D2002360E0BB78002B12D03149314B5C
S1132410DB6D23F4FE4323F00203FA6A12021A432B
S113242097F84230002B01D0022300E0002313432D
S1132430CB65FB78002B46D03B7A97F842201046B8
S113244019460022FFF7B2FC034683F00103DBB216
S1132450002B01D0002337E07B7A97F84220104606
S113246019460122FFF7A2FC034683F00103DBB205
S1132470002B01D0002327E07B6AFB63BB6ABB63AC
S1132480BA6BFB6B934238BF13467B627B6A7B63F8
S1132490E7233B633A6B7B6B934228BF13467B6213
S11324A00C490C4B5B6E23F4FF7323F001037A6A2F
S11324B052001A4397F84230002B01D0012300E068
S11324C0002313434B66012318465437BD4690BD81
S11324D0B081E00F00300E4080B584B000AF78606A
S11324E00023FB60314B1B6F03F00703BB602F4BD2
S11324F0DB6C03F00103002B15D0BB68012B12D950
S11325007B68132B02D80423FB600BE07B68132B3E
S113251005D97B68272B02D80823FB6002E010232F
S1132520FB602DE02CE0214BDB6C03F00103002B5E
S113253015D1BB68012B12D87B68092B02D8042360
S1132540FB600BE07B68092B05D97B68132B02D851
S11325500823FB6002E01023FB6011E010E0134B42
S1132560DB6C03F00103002B0AD0BB68012B07D8F6
S11325707B68272B02D80823FB6001E01023FB6053
S1132580FB68013BFB60FB681A02FB681B031343F7
S1132590FB600649054BDB6C23F47F42FB68134365
S11325A0CB64FFF75DFB1037BD4680BD00300E40A5
S11325B080B584B000AF0346FB710F480021FFF7DC
S11325C0EDF8F860FB68002B02D1FB79012B02D9EE
S11325D0FB68002B00D000BF0849084B1B6F23F099
S11325E00702FB7913430B67054B1B881846FFF75B
S11325F073FF1037BD4680BD4C300E4000300E4096
S11326009E00002080B485B000AF786039607B689C
S113261003F1C063FB60FB683A681A601437BD4677
S11326205DF8047B704700BF80B485B000AF78606C
S113263039607B6803F18063FB60FB683A681A6069
S11326401437BD465DF8047B704700BF80B584B085
S113265000AFF860B9607A60F868B968FFF7E4FF22
S1132660F8687968FFF7CEFF1037BD4680BD00BF1C
S113267080B582B000AF03463960FB71FB79002B53
S11326801CD0FB79012B19D0FB79022B16D0FB79D6
S1132690032B13D0FB79042B10D0FB79052B0DD021
S11326A0FB79062B0AD0FB79072B07D0FB79082B83
S11326B004D0FB79092B01D0FB790A2BFA79134654
S11326C05B0013441B010C3303F1804303F52043E7
S11326D03A68012101FA02F218461146FFF7A4FFF5
S11326E00837BD4680BD00BF80B582B000AF034649
S11326F03960FB71FB79002B1CD0FB79012B19D0BD
S1132700FB79022B16D0FB79032B13D0FB79042B16
S113271010D0FB79052B0DD0FB79062B0AD0FB7961
S1132720072B07D0FB79082B04D0FB79092B01D0A8
S1132730FB790A2BFA7913465B0013441B010C3313
S113274003F1804303F520433A68012101FA02F2C0
S113275018461146FFF756FF0837BD4680BD00BF37
S113276080B582B000AF03463960FB71FB79002B62
S11327701DD0FB79012B1AD0FB79022B17D0FB79E2
S1132780032B14D0FB79042B17D0FB79052B0ED027
S1132790FB79062B11D0FB79072B0ED0FB79082B84
S11327A005D0FB79092B02D0FB790A2B05D13B68B4
S11327B023F00113002B00D100BFFA7913465B000C
S11327C013441B0103F1804303F5204318464FF0E3
S11327D001113A68FFF73AFF0837BD4680BD00BFD4
S11327E090B585B000AFB9607B600346FB731346B8
S11327F0BB73FB7B002B1CD0FB7B012B19D0FB7B19
S1132800022B16D0FB7B032B13D0FB7B042B10D0A5
S1132810FB7B052B0DD0FB7B062B0AD0FB7B072B08
S113282007D0FB7B082B04D0FB7B092B01D0FB7B5F
S11328300A2BBB7B002B0DD07B68002B05D0FB7BC8
S11328401846B968FFF750FF04E0FB7B1846B968E7
S1132850FFF70EFFBB68072B1CD82B4CFA7B2A48CA
S1132860F97B0B465B000B441B0103445968BB68AE
S11328709B0018460F238340DB430B40B97BB868A9
S113288080008140194313465B0013441B01234419
S1132890596024E01C4CFA7B1B48F97B0B465B0017
S11328A00B441B01034408331968BB6803F18043DC
S11328B0083B9B0018460F238340DB431940B87B39
S11328C0BB6803F18043083B9B0000FA03F3194300
S11328D013465B0013441B01234408331960BB7B7C
S11328E0002B0DD17B68002B05D0FB7B1846B96803
S11328F0FFF7FAFE04E0FB7B1846B968FFF7B8FE61
S11329001437BD4690BD00BF00A0004080B487B01E
S113291000AFF860B9607A60FB68114A934208D14D
S1132920BB68012B05D87B681B0C1B04002B00D152
S113293000BFBB68002B02D0012B04D00AE0FB6867
S113294010337B6103E0FB6814337B6100BF7B6958
S11329507A681A601C37BD465DF8047B704700BF77
S11329600060044080B483B000AF78600B46FB7015
S1132970FB78002B03D07B6801225A6002E07B685D
S113298002225A600C37BD465DF8047B704700BFD5
S113299080B485B000AF786039600023FB603B6889
S11329A01B7883F00103DBB2002B08D07B689B68A3
S11329B003F00103002B02D07B6802225A603B68BB
S11329C05B78002B03D0FB6843F48053FB603B68C7
S11329D09B78002B03D13B68DB68002B07D0FB6896
S11329E043F40073FB603B68DA687B681A613B68F8
S11329F0DB78002B03D0FB6843F48073FB603B68F7
S1132A001B79002B03D0FB6843F04003FB603B6859
S1132A105B79002B03D0FB6843F08003FB603B68C9
S1132A209B799B001A46FB681343FB603B68DB7988
S1132A301B011A46FB681343FB603B681B7A1A466A
S1132A40FB681343FB607B68FA681A603B681B7879
S1132A50002B08D07B689B6803F00103002B02D194
S1132A607B6801225A601437BD465DF8047B7047C9
S1132A7080B500AF15480421FEF76EFA1348012112
S1132A80FDF7F0FE012000210022FEF75BFC05208B
S1132A9000210022FEF756FC002001210122FEF74E
S1132AA051FC0B480221FEF757FA09480121FDF7B2
S1132AB0D9FE08480121FDF7D5FE07480121FDF79D
S1132AC0D1FE06480121FDF7CDFE80BD4041050041
S1132AD002001E0000250A0000350A0080061600C8
S1132AE080B400AF054A054B1B6923F0040313614E
S1132AF030BFBD465DF8047B704700BF00ED00E0C9
S1132B0080B582B000AF0346FB71FEF71BFEFB7974
S1132B10054A52F823200132034941F82320FEF7E5
S1132B2019FE0837BD4680BDB400002080B500AF53
S1132B300E4B1B68002B00D016E00C4B5B68002B7F
S1132B4000D011E0094B9B68002B02D0FFF7C8FFAF
S1132B500AE0064BDB68002B03D00120FEF786FF5A
S1132B6002E00120FEF7A6FF80BD00BFB4000020F4
S1132B7080B500AF05204FF00111FFF7F1FD0520EE
S1132B80042104220023FFF72BFE05204FF001113E
S1132B90FFF7E6FD0520052104220023FFF720FEB0
S1132BA080BD00BF80B483B000AF0346FB7197F9CA
S1132BB00730002B0BDB084997F907305B09FA79DA
S1132BC002F01F02012000FA02F241F823200C3720
S1132BD0BD465DF8047B704700E100E080B483B03B
S1132BE000AF78607B681B6A18460C37BD465DF8F9
S1132BF0047B704780B485B000AF786039607B682F
S1132C0003F1C063FB60FB683A681A601437BD4681
S1132C105DF8047B704700BF80B485B000AF786076
S1132C2039607B6803F18063FB60FB683A681A6073
S1132C301437BD465DF8047B704700BF80B582B091
S1132C4000AF03463960FB71FB79002B1CD0FB7984
S1132C50012B19D0FB79022B16D0FB79032B13D04F
S1132C60FB79042B10D0FB79052B0DD0FB79062BB7
S1132C700AD0FB79072B07D0FB79082B04D0FB790A
S1132C80092B01D0FB790A2BFA7913465B00134414
S1132C901B010C3303F1804303F520433A680121FF
S1132CA001FA02F218461146FFF7B6FF0837BD468F
S1132CB080BD00BF80B582B000AF03463960FB71B0
S1132CC0FB79002B1CD0FB79012B19D0FB79022B4B
S1132CD016D0FB79032B13D0FB79042B10D0FB798E
S1132CE0052B0DD0FB79062B0AD0FB79072B07D0D7
S1132CF0FB79082B04D0FB79092B01D0FB790A2B33
S1132D00FA7913465B0013441B010C3303F180432F
S1132D1003F520433A68012101FA02F218461146EC
S1132D20FFF768FF0837BD4680BD00BF0000000004
S1132D30B0B588B000AF4FF40043BB6101237B61A1
S1132D4019E0BB695B08BB617B695B007B61B869A7
S1132D5000F062FA02460B46104619464FF0000294
S1132D60354B00F0CFFA02460B461046194600F0E8
S1132D70DBFC0346FB61FB694FF6FE729342E0D82D
S1132D807B69012B03D02D487969FDF7D9FEF869D9
S1132D9000F042FA04460D46B86900F03DFA0246D6
S1132DA00B461046194622A3D3E9002300F0AAFAE1
S1132DB002460B462046294600F0F0F802460B4630
S1132DC01046194600F0B0FC03463B610023FB703B
S1132DD00123BB7000237B7000233B7000233B71F5
S1132DE000237B7100233B720023FB600023BB7133
S1132DF00023FB713B4612481946FFF7C9FD1048F2
S1132E000021FA69FFF782FD0D4801213A69FFF7B5
S1132E107DFD0B4B03229A62094A094BDB6A43F09E
S1132E200303D3621B20FFF7BDFE2037BD46B0BDB0
S1132E309A9999999999D93F0000FC3F8006160008
S1132E400060044080B582B000AF0E48FFF7C6FEB4
S1132E5078600C4A7B6893627B6803F00103002B63
S1132E6003D005200421FFF725FF7B6803F002034C
S1132E70002B03D005200421FFF7E0FE0837BD46F0
S1132E8080BD00BF0060044080B400AF044BDB6C25
S1132E901B0EDBB21846BD465DF8047B704700BFCD
S1132EA0B081E00F80B582B000AF154B01225A64A7
S1132EB0FFF7EAFF0346FB71FB79002B0CD1114BA2
S1132EC04AF6E8521A60104A0F4B1B6843F0040399
S1132ED013600C4B00221A60FB79012B05D80B4AB6
S1132EE00A4B1B6843F400531360094A084B1B6ADE
S1132EF023F4441343F4881313620837BD4680BD9A
S1132F0000000E4090310E4098310E4064310E4066
S1132F1000400E40B0B58AB000AF1B4B07F1180457
S1132F20186859689A68DB680FC4184B3C1D1D4625
S1132F3028686968AA68EB680FC42B8A2380FFF7A6
S1132F40B1FF07F118031846FFF7C4F83B1D1846F4
S1132F50FEF786F911200421FDF7FEFF032000216E
S1132F600022FEF7EFF9FFF783FDFFF701FEFFF7FD
S1132F70DFFE07480121FFF7F5FC0320FFF7C0FD42
S1132F80FFF7D4FDFCE700BF3038000040380000F4
S1132F900060044081F0004102E000BF83F0004380
S1132FA030B54FEA41044FEA430594EA050F08BFE0
S1132FB090EA020F1FBF54EA000C55EA020C7FEAA4
S1132FC0645C7FEA655C00F0E2804FEA5454D4EB21
S1132FD05555B8BF6D420CDD2C4480EA020281EAEB
S1132FE0030382EA000083EA010180EA020281EA23
S1132FF00303362D88BF30BD11F0004F4FEA013175
S11330004FF4801C4CEA113102D0404261EB410183
S113301013F0004F4FEA03334CEA133302D0524209
S113302063EB430394EA050F00F0A780A4F10104C5
S1133030D5F1200E0DDB02FA0EFC22FA05F28018FF
S113304041F1000103FA0EF2801843FA05F35941E5
S11330500EE0A5F120050EF1200E012A03FA0EFC64
S113306028BF4CF0020C43FA05F3C01851EBE3718E
S113307001F0004507D54FF0000EDCF1000C7EEBAB
S113308000006EEB0101B1F5801F1BD3B1F5001FE9
S11330900CD349085FEA30004FEA3C0C04F1010408
S11330A04FEA445212F5800F80F09A80BCF1004F31
S11330B008BF5FEA500C50F1000041EB045141EAB3
S11330C0050130BD5FEA4C0C404141EB010111F4B4
S11330D0801FA4F10104E9D191F0000F04BF01465F
S11330E00020B1FA81F308BF2033A3F10B03B3F13D
S11330F020020CDA0C3208DD02F1140CC2F10C02CD
S113310001FA0CF021FA02F10CE002F11402D8BF2A
S1133110C2F1200C01FA02F120FA0CFCDCBF41EAF6
S11331200C019040E41AA2BF01EB0451294330BDC5
S11331306FEA04041F3C1CDA0C340EDC04F11404A2
S1133140C4F1200220FA04F001FA02F340EA030079
S113315021FA04F345EA030130BDC4F10C04C4F1BF
S1133160200220FA02F001FA04F340EA030029469F
S113317030BD21FA04F0294630BD94F0000F83F4E9
S1133180801306BF81F480110134013D4EE77FEACC
S1133190645C18BF7FEA655C29D094EA050F08BF18
S11331A090EA020F05D054EA000C04BF19461046F9
S11331B030BD91EA030F1EBF0021002030BD5FEA3D
S11331C0545C05D14000494128BF41F0004130BD65
S11331D014F580043CBF01F5801130BD01F00045B9
S11331E045F0FE4141F470014FF0000030BD7FEA2C
S11331F0645C1ABF194610467FEA655C1CBF0B4627
S1133200024650EA013406BF52EA033591EA030F3D
S113321041F4002130BD00BF90F0000F04BF002135
S1133220704730B54FF4806404F132044FF0000568
S11332304FF0000150E700BF90F0000F04BF0021E1
S1133240704730B54FF4806404F1320410F0004547
S113325048BF40424FF000013EE700BF42004FEA42
S1133260E2014FEA31014FEA02701FBF12F07F43BF
S113327093F07F4F81F06051704792F0000F14BFBC
S113328093F07F4F704730B54FF4607401F0004500
S113329021F0004120E700BF50EA010208BF704757
S11332A030B54FF000050AE050EA010208BF70474C
S11332B030B511F0004502D5404261EB41014FF4B5
S11332C0806404F132045FEA915C3FF4DCAE4FF0B9
S11332D003025FEADC0C18BF03325FEADC0C18BFA0
S11332E0033202EBDC02C2F1200300FA03FC20FAF1
S11332F002F001FA03FE40EA0E0021FA02F114443E
S1133300C1E600BF70B54FF0FF0C4CF4E06C1CEA52
S113331011541DBF1CEA135594EA0C0F95EA0C0FC7
S113332000F0DEF82C4481EA030621EA4C5123EA3A
S11333304C5350EA013518BF52EA033541F4801169
S113334043F4801338D0A0FB02CE4FF00005E1FB1C
S113335002E506F00042E0FB03E54FF00006E1FB66
S113336003569CF0000F18BF4EF0010EA4F1FF04A9
S1133370B6F5007F64F5407404D25FEA4E0E6D41E9
S113338046EB060642EAC62141EA55514FEAC520FA
S113339040EA5E504FEACE2EB4F1FD0C88BFBCF576
S11333A0E06F1ED8BEF1004F08BF5FEA500E50F127
S11333B0000041EB045170BD06F0004646EA0101ED
S11333C040EA020081EA0301B4EB5C04C2BFD4EB1F
S11333D00C0541EA045170BD41F480114FF0000E18
S11333E0013C00F3AB8014F1360FDEBF002001F086
S11333F0004170BDC4F10004203C35DA0C341BDC00
S113340004F11404C4F1200500FA05F320FA04F0D1
S113341001FA05F240EA020001F0004221F0004105
S113342010EBD37021FA04F642EB06015EEA430E78
S113343008BF20EAD37070BDC4F10C04C4F12005A8
S113344000FA04F320FA05F001FA04F240EA02005B
S113345001F0004110EBD37041F100015EEA430E2C
S113346008BF20EAD37070BDC4F1200500FA05F24C
S11334704EEA020E20FA04F301FA05F243EA0203CB
S113348021FA04F001F0004121FA04F220EA0200DA
S113349000EBD3705EEA430E08BF20EAD37070BD20
S11334A094F0000F0FD101F00046400041EB010100
S11334B011F4801F08BF013CF7D041EA060195F0E2
S11334C0000F18BF704703F00046520043EB03039C
S11334D013F4801F08BF013DF7D043EA0603704789
S11334E094EA0C0F0CEA135518BF95EA0C0F0CD094
S11334F050EA410618BF52EA4306D1D181EA0301DA
S113350001F000414FF0000070BD50EA410606BFD3
S11335101046194652EA430619D094EA0C0F02D118
S113352050EA013613D195EA0C0F05D152EA03365D
S11335301CBF104619460AD181EA030101F000417B
S113354041F0FE4141F470014FF0000070BD41F0C4
S1133550FE4141F4780170BD70B54FF0FF0C4CF49E
S1133560E06C1CEA11541DBF1CEA135594EA0C0FBD
S113357095EA0C0F00F0A7F8A4EB050481EA030E0A
S113358052EA03354FEA013100F088804FEA0333F1
S11335904FF0805545EA131343EA12634FEA0222BF
S11335A045EA111545EA10654FEA00260EF0004180
S11335B09D4208BF964244F1FD0404F5407402D2D2
S11335C05B084FEA3202B61A65EB03055B084FEA63
S11335D032024FF480104FF4002CB6EB020E75EB60
S11335E0030E22BFB61A754640EA0C005B084FEA88
S11335F03202B6EB020E75EB030E22BFB61A754605
S113360040EA5C005B084FEA3202B6EB020E75EB4F
S1133610030E22BFB61A754640EA9C005B084FEAC7
S11336203202B6EB020E75EB030E22BFB61A7546D4
S113363040EADC0055EA060E18D04FEA051545EAC3
S113364016754FEA06164FEAC30343EA52734FEA6C
S1133650C2025FEA1C1CC0D111F4801F0BD141EAE5
S113366000014FF000004FF0004CB6E711F4801F4A
S113367004BF01430020B4F1FD0C88BFBCF5E06F2A
S11336803FF6AFAEB5EB030C04BFB6EB020C5FEA3A
S1133690500C50F1000041EB045170BD0EF0004E8F
S11336A04EEA113114EB5C04C2BFD4EB0C0541EAC1
S11336B0045170BD41F480114FF0000E013C90E6BE
S11336C045EA060E8DE60CEA135594EA0C0F08BF82
S11336D095EA0C0F3FF43BAF94EA0C0F0AD150EA81
S11336E001347FF434AF95EA0C0F7FF425AF104614
S11336F019462CE795EA0C0F06D152EA03353FF43C
S1133700FDAE1046194622E750EA410618BF52EAB8
S113371043067FF4C5AE50EA41047FF40DAF52EA8C
S113372043057FF4EBAE12E74A0011D212F5001202
S113373011D20DD56FF47873B3EB62520ED44FEA05
S1133740C12343F0004343EA505323FA02F0704785
S11337504FF00000704750EA013002D14FF0FF30C3
S113376070474FF00000704708B5074B044613B18B
S11337700021AFF30080054B1868836A03B19847B2
S1133780204600F033F800BF000000005438000069
S113379070B50E4B0E4CE41AA41000251E46A5422B
S11337A004D056F8253098470135F8E700F020F8A2
S11337B0084C094BE41AA41000251E46A54204D067
S11337C056F8253098470135F8E770BD740000209D
S11337D07400002078000020740000200244034696
S11337E0934202D003F8011BFAE77047FEE700BFDB
S11337F0F8B500BFF8BC08BC9E467047F8B500BFDA
S1133800F8BC08BC9E46704740787D01000000006B
S1133810005A620200010000C0CF6A0002000000EA
S1133820809FD50002010000002D3101020200003A
S11338300002080705000A00C8000000FFFF01009D
S113384001000000A00068010A200706020A04071C
S10F3850000043001400002000000000F1
S10B385C0CC9FF7F010000000C
S1133864005A620200800000C0EA2101C0EA21017A
S1133874C0EA210100000000000000000000000074
S11338840000000000000000000000000000000030
S11338940000000052380000000000000000000096
S11338A40000000000000000000000000000000010
S11338B40000000000000000000000000000000000
S11338C400000000000000000000000000000000F0
S11338D400000000310100000D01000000000000A0
S90301DD1E
