S0180000506561726C5F456E657267795F4D6F64652E7333373B
S113000000000420D50100000102000001020000EC
S113001001020000010200000102000001020000D0
S113002001020000010200000102000001020000C0
S113003001020000010200000102000001020000B0
S113004001020000010200000102000001020000A0
S11300500102000001020000010200000102000090
S11300600102000001020000010200000102000080
S11300700102000001020000010200000102000070
S11300800102000001020000010200000102000060
S11300900102000001020000010200000102000050
S11300A0010200000102000001020000E52D000031
S11300B00102000001020000010200000102000030
S11300C00102000001020000010200000102000020
S11300D00102000001020000010200000102000010
S11300E00102000001020000010200000102000000
S11300F001020000010200000102000001020000F0
S113010001020000010200000102000010B5054CCC
S1130110237833B9044B13B10448AFF300800123AF
S1130120237010BD80000020000000008434000013
S113013008B5064B1BB106480649AFF300800648D4
S1130140036813B1054B03B1984708BD00000000D4
S113015084340000840000207C00002000000000A3
S1130160154B002B08BF134B9D46A3F5803A002185
S11301708B460F461348144A121A03F043F90F4BE7
S1130180002B00D098470E4B002B00D0984700203E
S1130190002104000D000D48002802D00C48AFF3E4
S11301A0008003F009F92000290002F085FE03F025
S11301B0EFF800BF00000800000004200000000069
S11301C00000000080000020CC000020000000009F
S11301D000000000064880470649074A074B9A4238
S11301E0BEBF51F8040B42F8040BF8E7FFF7B8FF61
S11301F0E502000090340000000000208000002090
S1130200FEE700BF80B582B000AF00F027F8786049
S11302100A4BD3F808210A4B13401B0A3B603B6886
S113022001337A68B2FBF3F37B60064B7A681A6099
S11302307B6818460837BD4680BD00BF00400E40AD
S113024000FF01000800002080B400AF024B1846F4
S1130250BD465DF8047B7047005A620280B483B0E7
S113026000AF164BD3F8943003F00703032B08D0E8
S1130270042B02D0022B08D00BE0114B1B687B60CF
S11302800BE04FF400437B6007E00E4B1B687B6080
S113029003E00D4B1B687B6000BF084BD3F80031B3
S11302A003F4F8531B0A01337A68B2FBF3F31846DC
S11302B00C37BD465DF8047B704700BF00400E401C
S11302C004000020000000200C00002080B400AFD7
S11302D0034B1B681846BD465DF8047B704700BF9E
S11302E00000002080B400AF074B084A9A60064B18
S11302F0054AD2F8882042F47002C3F88820BD462B
S11303005DF8047B704700BF00ED00E000000000D2
S113031080B400AF4FF400431846BD465DF8047B3B
S1130320704700BF80B400AF4FF47A731846BD46DF
S11303305DF8047B704700BF80B400AF034B1B68BB
S11303401846BD465DF8047B704700BF04000020DA
S113035080B487B000AFF860B9607A60FB6803F1DD
S11303600473DA00BB6813449B007B617B697A6881
S11303701A601C37BD465DF8047B704780B485B0B5
S113038000AF786039607B6803F10473DA003B687E
S113039013449B00FB60FB681B6818461437BD467A
S11303A05DF8047B704700BF80B483B000AF786011
S11303B07B68012202FA03F318460C37BD465DF848
S11303C0047B704780B584B000AF78607B680133EC
S11303D0B3FA83F3DBB2C3F11F03FB60F868FFF7E2
S11303E0E3FFFB6818461037BD4680BD80B500AFFB
S11303F000BF04481221FFF7C1FF0346002BF8D1C8
S113040080BD00BF04300E4080B500AFFFF7EEFFA3
S1130410034B5B6803F440331B0CDBB2184680BD0E
S113042000300E4080B584B000AF78600123FB60DB
S11304307A68124B9A4204D80023FB600023BB6005
S113044008E07A680E4B9A4202D80123BB6001E0AF
S11304500223BB600B481021FA68FFF779FF094BB0
S1130460084AD2F8002122F08071BA6812060A43C1
S1130470C3F800211037BD4680BD00BF0048E80125
S11304800090D00300400E4080B483B000AF054B11
S11304901B687B607B6818460C37BD465DF8047B9F
S11304A0704700BF1000002080B582B000AFFFF796
S11304B0D5FE7860064BD3F8003103F4F8531B0AD9
S11304C001337A6802FB03F318460837BD4680BD42
S11304D000400E4080B582B000AF0D4800F058FCDB
S11304E00346FB70FB78072B05D0092B07D1FFF7D8
S11304F0B5FE786006E0FFF7C7FF786002E00023EE
S11305007B6000BF7B6818460837BD4680BD00BFCE
S113051006000E0080B584B000AF78607B68002BC5
S11305201CD11B4800F034FC0346FB7200BFFB7A6D
S1130530013B072B23D801A252F823F061050000E8
S11305407F0500007F0500006F0500007F050000A7
S11305507F0500006705000077050000002312E016
S11305600023FB600EE0FFF78FFFF8600AE0FFF75F
S1130570ADFEF86006E0FFF797FFF86002E00023A5
S1130580FB6000BFFB6818461037BD4680BD00BF46
S1130590B800320080B485B000AF786039601D4B7C
S11305A05B6803F04073FB600023BB6013E01A4AEE
S11305B0BB68DB0013441A793B68DBB29A4207D16B
S11305C0154BBA6853F832207B689A4200D305E091
S11305D0BB680133BB60BB68042BE8D9BB68052B3F
S11305E002D10323FB6005E00B4ABB68DB00134424
S11305F05B79FB60FB681B06FB60064B054A52688F
S113060022F04071FA680A435A601437BD465DF817
S1130610047B704700000E403034000080B582B087
S113062000AF0D4B1B6C002B0CBF00230123FB718F
S1130630094B41F671321A64FFF706FE0346184669
S11306400021FFF7A7FFFB79002B02D0024B002209
S11306501A640837BD4680BD00000E4080B584B0E2
S113066000AF786039600C4B1B6C002B0CBF00236F
S11306700123FB73084B41F671321A6478683968B8
S1130680FFF788FFFB7B002B02D0034B00221A6488
S11306901037BD4680BD00BF00000E4080B487B057
S11306A000AF78600F237B617B6803333B617B6918
S11306B0FB60FA683B699A4238BF1346BB60BB686B
S11306C01B07BB60BB6818461C37BD465DF8047B3E
S11306D0704700BF80B400AF044B5B6A03F0300383
S11306E01B091846BD465DF8047B704700400E4068
S11306F080B483B000AF7860064B064A526A22F099
S113070030017A6812010A435A620C37BD465DF81B
S1130710047B704700400E4090B585B000AF786010
S11307200023BB607B68354A934206D0344A934227
S113073003D0344A934200D000E000BF786800F050
S113074027FB0346FB607B682C4A93420DD02C4A5E
S1130750934211D02B4A934200D014E02A4BD3F891
S1130760803003F00703FB600DE0274BD3F884309F
S113077003F00703FB6006E0234BD3F8883003F053
S11307800703FB6000BFFB68042B2ED801A252F8BC
S113079023F000BFE5070000A9070000B10700002F
S11307A0C1070000B9070000FFF7B2FDB8601FE001
S11307B0FFF7C2FDB8601BE0FFF7B4FDB86017E0B7
S11307C0FFF720FD0446104BD3F8003103F080738B
S11307D01B0E01331846FFF7E7FD0346B4FBF3F3A2
S11307E0BB6005E00023BB6002E00023BB6000BFE8
S11307F0BB6818461437BD4690BD00BF03002000F7
S11308000500240002001E0000400E4080B483B0A6
S113081000AF78600A4BD3F8443103F00103002B96
S113082000D007E000BF064BD3F840217B6813409B
S1130830002BF8D10C37BD465DF8047B704700BF30
S113084000400E4080B400AFBD465DF8047B7047A5
S113085080B400AFBD465DF8047B704780B586B0B8
S113086000AF78600B46FB7000233B617B681B0A7A
S113087003F00F03013B092B44D801A252F823F0E3
S1130880A9080000B50800000509000005090000DA
S1130890AF080000BB080000C508000005090000FF
S11308A0CF080000DB080000184B7B6118E0184BF0
S11308B07B6115E0174B7B6112E0174B7B610123D1
S11308C03B610DE0154B7B6110233B6108E0144B49
S11308D07B614FF480333B6102E0124B7B6100BFCC
S11308E07B681B0B03F01F03FB603B69002B02D0EA
S11308F03869FFF78BFFFB787869F9681A46FFF7C8
S113090027FD00E000BF1837BD4680BD00400E4003
S1130910B0400E40C0400E40E0400E40E8400E4063
S1130920F0400E4050410E4080B584B000AF786076
S11309307B6803F47813B3F5A01F7DD0B3F5A01F33
S11309401AD8B3F5202F50D0B3F5202F08D8B3F51B
S1130950003F4ED0B3F5802F38D0002B32D0D8E0F2
S1130960B3F5602F00F0C880B3F5801F00F0C88095
S1130970B3F5402F4CD0CCE0B3F5001F00F08B80D2
S1130980B3F5001F0AD8B3F5D01F00F08980B3F582
S1130990F01F4CD0B3F5B01F5CD0BAE0B3F5381FEC
S11309A06AD0B3F5381F04D8B3F5101F00F09F8048
S11309B0AFE0B3F5401F00F08680B3F5481F00F0A8
S11309C0A380A6E0FFF74AFCF860A5E0FFF746FC29
S11309D0F860544BD3F80C21534B13401B0A0133DA
S11309E0FA68B2FBF3F3FB6096E0FFF737FCF860BC
S11309F092E0FFF733FCF8604A4BD3F808214A4BE6
S1130A0013401B0A0133FA68B2FBF3F3FB6083E083
S1130A10FFF724FCF860434BD3F8143103F4F85384
S1130A201B0A0133FA68B2FBF3F3FB6074E03F483E
S1130A30FFF772FEF8606FE03D48FFF76DFEF86067
S1130A40384BD3F8303103F00303FA6822FA03F386
S1130A50FB6061E03548FFF75FFEF860314BD3F887
S1130A60203103F00F031846FFF79EFC0346FA6893
S1130A70B2FBF3F3FB604FE02C48FFF74DFEF86048
S1130A80284BD3F8203103F030031B09FA6822FA0B
S1130A9003F3FB6040E02748FFF73EFEF8603BE0CD
S1130AA02448FFF739FEF8601E4BD3F8283103F0D1
S1130AB030031B091846FFF777FC0346FA68B2FBBC
S1130AC0F3F3FB6028E01B48FFF726FEF860154BA4
S1130AD0D3F8283103F440731B0A04331846FFF794
S1130AE063FC0346FA68B2FBF3F3FB6014E01048BE
S1130AF0FFF712FEF8600FE0FFF7ECFCF8600BE084
S1130B00FFF7C2FCF86007E00020FFF703FDF86080
S1130B1002E00023FB6000BFFB6818461037BD46A7
S1130B2080BD00BF00400E4000FF010002001E0017
S1130B30050024000300200080B584B000AF786075
S1130B4039607B681B0903F00F03FB60FB68013B02
S1130B50092B00F2088101A252F823F0850B000052
S1130B60D10B0000670D0000E90B0000670D0000C9
S1130B70670D0000050C00004D0C0000CD0C0000BA
S1130B803D0D0000FFF74AFD7948FFF74BFCFFF7E6
S1130B9059FE784B774AD2F8002122F4F8513A688A
S1130BA012020A43C3F80021FFF72CFBB860FFF7D9
S1130BB02BFC0346B8681946FFF750FD6E48FFF753
S1130BC0B3FE03461846FFF72DFCFFF741FECBE0CA
S1130BD0684B684AD2F8142122F4F8513A68120298
S1130BE00A43C3F81421BFE0624A624BD3F80C31C4
S1130BF023F4FF3323F48073396809020B43C2F8EA
S1130C000C31B1E0FFF70AFD5948FFF70BFC594AD4
S1130C10584BD3F8083123F4FF3323F48073396835
S1130C2009020B43C2F80831FFF7ECFAB860FFF78A
S1130C30EBFB0346B8681946FFF710FD4E48FFF773
S1130C4073FE03461846FFF7EDFB8DE07B684B4AC5
S1130C50934215D04A4A934224D04A4A934200D040
S1130C6033E04FF48020FFF7D1FD424B414AD2F8E4
S1130C70302122F003013A680A43C3F8302124E00A
S1130C803868FFF79FFB38600420FFF7BFFD394B3E
S1130C90384AD2F8202122F00F013A680A43C3F8F7
S1130CA0202112E03868FFF78DFB38600420FFF73D
S1130CB0ADFD304B2F4AD2F8202122F030013A68A2
S1130CC012010A43C3F8202100BF4DE07B682E4A7D
S1130CD0934203D02D4A934213D02EE03868FFF795
S1130CE071FB38604020FFF791FD224B214AD2F876
S1130CF0282122F030013A6812010A43C3F828215E
S1130D001BE03B687F2B03D83B680E2B00D900BF48
S1130D103868FFF757FB0346043B3B604020FFF76E
S1130D2075FD144B134AD2F8282122F440713A6815
S1130D3012020A43C3F8282100BF15E07A68114B58
S1130D409A4200D00EE04FF48020FFF75FFD094B7C
S1130D50084AD2F8302122F003013A680A43C3F862
S1130D60302100BF00E000BF1037BD4680BD00BF8A
S1130D700148E80100400E4000250A0080061600E4
S1130D8080162E00A009140090171A009027300036
S1130D9080B485B000AF78600123FB737B6803F0F7
S1130DA00F03BB60BB68013B072B00F2C48001A2A8
S1130DB052F823F0D50D00002B0E00005B0E00004E
S1130DC0370F0000A10E0000D10E0000370F000005
S1130DD0F50E00005D4BD3F8943003F00703023B9B
S1130DE0052B1ED801A252F823F000BF110E0000FB
S1130DF00B0E0000050E0000170E0000230E00006D
S1130E001D0E00000223FB730EE00323FB730BE0B3
S1130E100423FB7308E00B23FB7305E00C23FB7333
S1130E2002E00523FB7300BF88E0484BD3F8803011
S1130E3003F00703022B06D0042B07D0012B08D1A3
S1130E400323FB7308E00223FB7305E00A23FB730F
S1130E5002E00123FB7300BF70E03C4BD3F8843005
S1130E6003F00703013B032B16D801A252F823F029
S1130E70810E0000870E0000930E00008D0E00000E
S1130E800323FB730BE00223FB7308E00A23FB73C9
S1130E9005E00623FB7302E00123FB7300BF4DE072
S1130EA02A4BD3F8883003F00703022B06D0042B17
S1130EB007D0012B08D10323FB7308E00223FB7343
S1130EC005E00A23FB7302E00123FB7300BF35E056
S1130ED01E4B1B6F03F00103002B04D0012B05D123
S1130EE00923FB7305E00723FB7302E00123FB7373
S1130EF000BF23E0154BD3F85C3103F03003102B13
S1130F000CD0102B02D8002B05D010E0202B08D0D9
S1130F10302B09D00BE00123FB730BE00723FB7399
S1130F2008E00423FB7305E00823FB7302E00123BC
S1130F30FB7300BF02E00023FB7300BFFB7B18467A
S1130F401437BD465DF8047B704700BF00400E4077
S1130F5080B58AB000AF78600B46FB7003237B62D8
S1130F60032387F823300023BB6100237B617B6864
S1130F70112B19D1FB78042B03D1FFF7A7F9786162
S1130F800BE0FB78052B08D100F05AF90246A44B7C
S1130F909A4202D900F054F978617B69002B03D09E
S1130FA07869002100F0B6FD7B6803F00F033B6114
S1130FB03B69013B072B00F2298101A252F823F07F
S1130FC0E10F0000D5100000E71000000D12000032
S1130FD0D91000007D1100000D1200009B110000CB
S1130FE0FB78023B0A2B00F2138101A252F823F092
S1130FF01D100000291000003510000047100000EB
S11310001112000011120000111200001112000050
S113101011120000591000006510000004237B62C7
S1131020002387F8233023E003237B62012387F81E
S113103023301DE002237B62022387F823307948A2
S1131040FFF7F0F914E001237B62032387F82330D0
S11310507448FFF7E7F90BE005237B62032387F865
S1131060233005E007237B62062387F8233000BF83
S113107097F82330062B06D097F823301846012121
S1131080012200F05BF9FFF7C9FAFFF7DBFB7B698C
S1131090002B01D0FFF7AAF9634B7A6A5A676348B9
S11310A0FFF742FC03461846FFF7BCF9FFF7AAF81E
S11310B0F860FFF7A9F90346F8681946FFF7CEFA76
S11310C07B69002B03D10020012100F023FDFFF7F1
S11310D0BFFBA2E0564BBB61BB69002B01D0BB69CF
S11310E000E0544BBB61BB69002B01D0BB6900E03D
S11310F0514BBB61FB78013B092B00F28B8001A2B1
S113110052F823F02D1100003311000043110000A8
S113111015120000151200005311000015120000F2
S113112015120000151200006F1100000023FB616E
S113113020E000200121012200F000F90223FB61DC
S113114018E001200121012200F0F8F80123FB61DD
S113115010E0FFF757F803461846FFF763F93748DE
S113116002210122FFF7F4F80323FB6102E00423C8
S1131170FB6100BFBB69FA691A604EE0FB78072B7C
S113118002D0092B04D048E0274B00221A6703E061
S1131190254B01221A6700BF3FE0FB78013B072B78
S11311A03AD801A252F823F0C91100001912000024
S11311B019120000DF1100001912000019120000BA
S11311C0CF110000EF1100000023FB6112E00420A6
S11311D00121012200F0B2F80123FB610AE00220A0
S11311E00121012200F0AAF80223FB6102E003239B
S11311F0FB6100BF0C4B0C4AD2F85C2122F0300199
S1131200FA6912010A43C3F85C2106E000BF04E056
S113121000BF02E000BF00E000BF2837BD4680BD2C
S1131220002D31010148E80100400E4000250A006C
S113123080400E4088400E4084400E40B0400E4036
S113124080B400AF034B1B681846BD465DF8047BB1
S1131250704700BF0C000020B0B584B000AF7860C8
S11312601120FFF795FD02200021012200F066F80D
S11312707B685B7883F00103DBB2002B0ED07B68C4
S11312809B7883F00103DBB2002B07D07B68DB780B
S113129083F00103DBB2002B00D000BF0023FB600E
S11312A07B681B7C022B01D10123FB60214B214A6B
S11312B0526A22F00101FA680A435A627B681B7879
S11312C01D4808211A46FFF743F81A4B7A6892889A
S11312D0D1027A68527A0A43DA62164C154B1B6BB8
S11312E003F07F627B68DB88DB021A437B689B7AAE
S11312F01A437B681B7ADB0142EA03057B681B7A8D
S11313001846FFF7CBF903462B432363094B7A684E
S1131310527B11037A68927B120111437A68D27B63
S113132011437A68127B12040A435A631037BD468C
S1131330B0BD00BF00400E4024400E4080B588B0D0
S113134000AF13460246FA710A46BA717B71FB7903
S1131350042B00F2B88001A252F823F0B913000064
S1131360A7130000831300007113000095130000FD
S113137001237B6102233B610123FB610023BB61E9
S113138025E004237B6108233B610323FB610223E3
S1131390BB611CE010237B6120233B610523FB61BF
S11313A00423BB6113E040237B6180233B6107235B
S11313B0FB610623BB610AE04FF480737B614FF449
S11313C000733B610923FB610823BB6100BFBB7948
S11313D0002B5BD00023FB73FB79022B11D1FFF7A9
S11313E079F90346002B0CD1394BDB6B0123FB73DA
S11313F0384B5B6A03F00103002B02D00120FFF796
S113140077F9344B7A691A6600BF3348B969FEF735
S1131410B5FF0346002BF8D07B79002B35D000BFF5
S11314202D48F969FEF7AAFF0346002BF8D0FB7993
S1131430022B2AD1FB7B002B27D0264B5B6A03F0BF
S11314400103002B05D002202021012200F04AF9DB
S113145003E00220002100F0FBF8022000F03EF837
S1131460B860022000210122FFF768FF0220B9685A
S113147000F06EF8174B7A691A6600BF1648F969CE
S1131480FEF77CFF0346002BF8D01DE0114B3A69B0
S11314901A6600BF0F4BD3F89020BB69012101FAF3
S11314A003F31340002BF5D17B79002B0CD000BF44
S11314B0084BD3F89020FB69012101FA03F3134090
S11314C0002BF5D100E000BF2037BD4680BD00BF32
S11314D000300E4000400E4090400E4080B485B075
S11314E000AF0346FB71FB79013B032B23D801A218
S11314F052F823F00515000029150000111500000D
S11315001D150000114B1B6AC3F30803FB6015E0B3
S11315100E4B1B6903F07F03FB600FE00B4B9B69D1
S113152003F07F03FB6009E0084BD3F89C30C3F35E
S11315300A03FB6002E00023FB6000BFFB6818465F
S11315401437BD465DF8047B704700BF00400E4071
S113155080B584B000AF03463960FB71FB79013B71
S1131560032B6AD801A252F823F000BF7D150000B6
S1131570FF150000AB150000D51500003B68C3F350
S113158008033B6000BF2F481A21FEF7F7FE03460D
S1131590002BF8D12C4A2C4B1B6A23F4FF7323F045
S11315A0010339680B43136248E03B6803F07F038F
S11315B03B6000BF23481821FEF7E0FE0346002BE2
S11315C0F8D1214B204A126922F07F013A680A437C
S11315D01A6133E03B6803F07F033B6000BF1948A6
S11315E01921FEF7CBFE0346002BF8D1164B164A01
S11315F0926922F07F013A680A439A611EE0124B15
S1131600D3F89030104B104A526A22F0300242F064
S113161010025A623B6803F4F063DB091846FFF7D3
S11316203DF8F860084A084B196B084B0B403968C1
S11316301943FB680B43136300E000BF1037BD463A
S113164080BD00BF40410E4000400E4000F8FF0F37
S113165080B584B000AF02460B46FA71BB71FFF748
S113166039F80346002B03D14FF44003FB6016E026
S1131670BB79202B04D0302B0AD0002B04D00BE0F4
S11316804FF40003FB600AE04FF44003FB6006E004
S11316904FF44003FB6002E0104BFB6000BF00BF4F
S11316A00F4BD3F89020FB681A40FB689A42F7D19D
S11316B0FB6803F48003002B0AD0094BD3F8A03055
S11316C003F48063002B0CBF00230123DBB200E092
S11316D0012318461037BD4680BD00BFFF33E10724
S11316E000400E4080B582B000AF13460246FA7146
S11316F00A46BA717B71FB79022B00D016E0BB79E4
S1131700002B07D00C4B4FF48062C3F8A8200A4B7F
S1131710BA795A667B79002B07D0FA79BB791046DF
S11317201946FFF795FF034601E000BF0123184661
S11317300837BD4680BD00BF00400E4080B400AFF6
S113174072B6BD465DF8047B704700BF80B400AF3D
S113175062B6BD465DF8047B704700BF80B500AF3C
S1131760FEF750FD80BD00BF80B487B000AFF860C5
S1131770B9607A60FB6803F10473DA00BB68134450
S11317809B007B617B697A681A601C37BD465DF8F3
S1131790047B704780B485B000AF786039607B68A3
S11317A003F10473DA003B6813449B00FB60FB689D
S11317B01B6818461437BD465DF8047B704700BFAC
S11317C080B500AF00BF04481221FFF7E3FF0346D2
S11317D0002BF8D180BD00BF04300E4080B500AFAF
S11317E0FFF7EEFF034B5B6803F440331B0CDBB2E3
S11317F0184680BD00300E4080B483B000AF7860DE
S1131800034B7A68DA620C37BD465DF8047B704797
S113181000300E4080B400AF034B5B6A1846BD46EF
S11318205DF8047B704700BF00300E4080B400AF09
S1131830034B0022C3F88021BD465DF8047B70474A
S113184000400E4080B400AF044B45F60E02C3F8CE
S11318508021BD465DF8047B704700BF00400E4008
S113186080B483B000AF0346FB71FB79C3F102037C
S1131870102202FA03F318460C37BD465DF8047BC8
S1131880704700BF90B585B000AF0346FB71FB798C
S1131890002B1AD1474BD3F89020474B1A601120E4
S11318A0FFF776FA03461A46444B1A70FFF788FF8F
S11318B0434B5B6803F440331B0CDAB2414B1A70A0
S11318C03C4B1A69404B1A6070E03D4C3D4B1B7811
S11318D01846FFF7C5FF03462361364BD3F8803122
S11318E003F00103FB60FFF7ADFF0023BB60324B45
S11318F01B6803F00103BA681343BB602E4B1B68DB
S113190003F01003BA681343BB602B4B1B6803F04E
S11319104003BA681343BB60274B1B6803F00403FE
S1131920BA681343BB60244B1B6803F48073BA6822
S11319301343BB601F4BBA681A66FFF741FF204B85
S11319401B6803F01003002B18D000BF194BD3F809
S1131950403103F08073002BF8D1164B1A4A1268F9
S11319601A61164B1B78052B08D1184B1C68FFF71E
S113197035FF034620461946FEF770FE0F4B1B78D1
S1131980052B05D00D4B1B7811201946FFF7E0FA03
S1131990094B1B6803F00103002B02D1054B022203
S11319A01A66FB68002B01D0FFF740FF1437BD46D1
S11319B090BD00BF00400E40A8000020AC000020F5
S11319C000300E40AD000020B00000200C000020CC
S11319D080B582B000AFFFF7F3FE104B1B6803F431
S11319E040731B0A7B600D4B5B6803F440331B0C94
S11319F03B607A683B689A4206D9084B074A1268EA
S1131A0042F010021A6005E0044B044A126822F006
S1131A1010021A600837BD4680BD00BF00300E407A
S1131A2080B483B000AF0B4B1B6803F01003002B92
S1131A300BD0094B1B6903F4F8131B0C7B607B6808
S1131A40082B02D1054B064A1A600C37BD465DF8D7
S1131A50047B704700300E4000400E400C00002014
S1131A60C0EA210180B582B000AF0346FB71FB7967
S1131A70002B02D00020FFF705FFFFF7A9FF0A4B58
S1131A80094A126942F004021A6130BFFB79002B43
S1131A9003D00120FFF7F6FE03E0FFF7C1FFFFF7D5
S1131AA05DFE0837BD4680BD00ED00E080B584B022
S1131AB000AF0346FB71FB79002B02D00020FFF737
S1131AC0E1FEFFF785FF114BD3F8803103F00103EA
S1131AD0FB60FFF7B7FEFB68002B01D0FFF7A6FE03
S1131AE00B4B0B4A126942F004021A6130BFFB79B6
S1131AF0002B03D00120FFF7C5FE03E0FFF790FFA2
S1131B00FFF72CFE1037BD4680BD00BF00400E40DD
S1131B1000ED00E080B584B000AF78600B46FB7048
S1131B20154BD3F8003103F4F8531B0A0133BB609F
S1131B307B68002B07D1FEF791FB0346BA6802FBD2
S1131B4003F3FB6001E07B68FB600C4B1B78002B0C
S1131B5009D0FA680A4B9A4205D8FB780220194644
S1131B6000F010F804E0FB780020194600F00AF8B1
S1131B701037BD4680BD00BF00400E40A4000020C9
S1131B80FF2C310190B587B000AF02460B46FA71C5
S1131B90BB711B4BD3F8003103F4F8531B0A013318
S1131BA07B61FEF75BFB3861FFF718FE0346FB73AE
S1131BB0FA7BFB799A4200D11EE03B697A6902FB09
S1131BC003F3BB60FB79022B03D138690221FEF7D2
S1131BD045FD0C4CFB791846FFF742FE0346236192
S1131BE0BB79002B01D0FFF7EBFDFB79002B03D170
S1131BF038690021FEF732FD1C37BD4690BD00BF99
S1131C0000400E4000300E4080B483B000AF7860D6
S1131C100A4B0A4A126822F440717A685278120216
S1131C200A431A607B685B78022B01D1044B5B6A20
S1131C300C37BD465DF8047B704700BF00300E4092
S1131C4000400E4080B400AF01231846BD465DF845
S1131C50047B704780B582B000AF0C4B0B4AD26E48
S1131C6042F08072DA660A480021FFF793FD78603B
S1131C707B68002B03D0042000F0ACFC02E00020C1
S1131C8000F0A8FC0837BD4680BD00BF00300E4000
S1131C904C300E4080B48BB000AF01237B627B6A72
S1131CA01B053B62314BDB6C03F470631B0AFB6165
S1131CB02F4B1B881A462E4B1B8828335B08134472
S1131CC003F12801FB695A1C13469B001344B1FB22
S1131CD0F3F3013BBB61BB697B6107233B613A6959
S1131CE07B699A4238BF1346BB61BB691B06BB6163
S1131CF01E4B1E4AD26C22F0EE61B8693A6A024366
S1131D000A43DA641B4B1B881BB2002B28DB194BDC
S1131D101B88FB81FA89FB8928335B08134403F190
S1131D202802FB6901335900FB6901335B080B444A
S1131D30B2FBF3F3BB60BB687B6007233B603A688C
S1131D407B689A4238BF1346BB60BB681B01BB600B
S1131D50064B064A126D22F07001BA680A431A65EE
S1131D602C37BD465DF8047B704700BF00300E4041
S1131D709C000020A000002080B483B000AF7860F5
S1131D800B467B807B689AB2044B1A80044B7A889A
S1131D901A800C37BD465DF8047B70479C00002018
S1131DA0A000002080B483B000AF0346FB71FB7930
S1131DB0002B02D0012B04D007E0064B064A9A659B
S1131DC003E0044B054A9A6500BF0C37BD465DF835
S1131DD0047B704700300E4077402057372110B7FE
S1131DE080B485B000AF13460246FA710A46BA7150
S1131DF07B712E4BD3F88031FB60BB79032B1FD84A
S1131E0001A252F823F000BF191E0000211E000099
S1131E102D1E0000391E0000FB68DBB2FB6011E0E0
S1131E20FB6803F47F431B0AFB600BE0FB6803F4CD
S1131E307F031B0CFB6005E0FB681B0EFB6001E0ED
S1131E4000232CE07B79002B11D1FB681B03FB6082
S1131E50FB6823F47043002B01D000231FE0144BD4
S1131E60134AD26E22F47041FA680A43DA667B7927
S1131E70012B13D1FB681B03FB60FB6823F4704345
S1131E80002B01D000230AE0094B094AD2F8EC20C8
S1131E9022F47041FA680A43C3F8EC20012318467F
S1131EA01437BD465DF8047B704700BFB081E00F76
S1131EB000300E4080B489B000AFF860B960FA71A8
S1131EC0BB710023FB610023BB61BB791A02FB7960
S1131ED0002B01D0012300E0002313437B617B69C5
S1131EE040F2011293422BD0B3F5817F07D2012B2C
S1131EF019D0012B4BD3B3F5807F55D07BE040F252
S1131F000122934229D040F20122934203D8B3F52F
S1131F10007F56D06FE0B3F5407F5FD040F20132CE
S1131F20934227D067E0394BD3F87431FB61FB69E6
S1131F3003F47F431B0ABB61FB69DBB2FB615AE01C
S1131F40324BD3F87431FB61FB691B0EBB61FB6937
S1131F5003F47F031B0CFB614DE02C4BD3F8783169
S1131F60FB61FB6903F47F431B0ABB61FB69DBB2C2
S1131F70FB6140E0254BD3F87831FB61FB691B0E14
S1131F80BB61FB6903F47F031B0CFB6133E01F4B54
S1131F90D3F86C31FB61FB6903F47F431B0ABB611B
S1131FA0FB69DBB2FB6126E0184BD3F86C31FB61B3
S1131FB0FB691B0EBB61FB6903F47F031B0CFB6114
S1131FC019E0124BD3F87031FB61FB6903F47F43D2
S1131FD01B0ABB61FB69DBB2FB610CE00B4BD3F862
S1131FE07031FB61FB691B0EBB61FB6903F47F036A
S1131FF01B0CFB6100BFFB68FA691A60BB68BA6915
S11320001A602437BD465DF8047B7047B081E00F49
S113201080B584B000AF0346FB7100BF364B9B6FA5
S113202003F00103002BF9D1334B1B6C03F00303C2
S1132030FB60FB68002B04D030480D210122FFF720
S113204093FBFB68DBB2FA799A4209D1FB79002B46
S113205005D12A480D210022FFF786FB48E047E01E
S1132060FB68032B02D0FB68002B20D1FB79022BE9
S113207002D0FB79012B1AD14FF40020FFF7BCFBEF
S113208000BF1D4B9B6F03F00103002BF9D11A4BCA
S1132090194A126C22F0030242F001021A6400BFD2
S11320A0FFF7B8FB034603F40023002BF8D000BF6E
S11320B0114B9B6F03F00103002BF9D10E4B0E4A19
S11320C0126C22F00301FA790A431A6400BF0A4B26
S11320D09B6F03F00103002BF9D1FB79002B0CBF9C
S11320E000230123DBB205480D211A46FFF73CFB10
S11320F01037BD4680BD00BF00300E4054300E4046
S113210080B584B000AF7860484B02229A63474B95
S11321109B6B03F00F03022B01D0002381E0FFF738
S113212091FD7B685B78012B02D07B685B78022B86
S11321307B68DB884A2B02D80023FB6015E07B68B0
S1132140DB88B3F5FA7F03D24FF08053FB600CE0D9
S11321507B68DA8840F6C3139A4203D84FF00053E1
S1132160FB6002E04FF04053FB6030492F4BDB6CC7
S113217023F0405323F001037A68928912B2002AB3
S113218001DB012200E00022F86802431343CB6420
S1132190264B264AD2F8EC2042F44072C3F8EC20D5
S11321A0FFF758FD7B681B891A467B689B891BB225
S11321B010461946FFF7E0FD7B689A881C4B1A808D
S11321C07B689B88184600F099F97B689B7B1846CE
S11321D0FFF7E8FD7B685B8818460121012200F0C7
S11321E02BF8034683F00103DBB2002B01D000235C
S11321F017E00E4B0D4AD26B42F48062DA637B68BF
S11322005B781846FFF704FF7B689B7A202B01D18B
S1132210012300E00023074805211A46FFF7A4FA2A
S1132220012318461037BD4680BD00BF00300E4064
S11322309E0000203C300E4080B594B000AF786022
S113224013460A46FA70BB700023FB6400237B64C8
S113225007F1240300221A60043300221A600433B5
S113226000221A60043307F1180300221A600433B1
S113227000221A60043300221A60043307F10C03AD
S113228000221A60043300221A60043300221A6008
S1132290043300233B810023BB727B68B3F5E16FF9
S11322A006D37A6840F6B8339A4201D8012300E095
S11322B0002387F8433097F8433003F0010387F88D
S11322C0433097F8433083F00103DBB2002B01D095
S11322D000230BE17B68B3F5E16F94BF0023012376
S11322E087F8423097F84230002B0AD04FF4E1636C
S11322F0FB6440F6B8337B647A6CFB6CD31ABB6422
S113230009E04FF49663FB644FF4E1637B647A6CF9
S1132310FB6CD31ABB6497F84230002B0CD0754B7E
S1132320D3F868313B623B6A1B0E7B613B6A03F462
S11323307F031B0C3B620BE06E4BD3F868313B62AE
S11323403B6A03F47F431B0A7B613B6ADBB23B625B
S1132350694BDB6C03F040531B0FDBB23B723B7ADF
S113236007F1180007F10C0197F84220FFF7A2FDCE
S1132370614BD3F8EC3003F440731B0ADBB27B727D
S11323807B7A07F11802101D07F10C02111D97F852
S11323904220FFF78FFD7A68FB6CD31A79693A6A99
S11323A08A1A02FB03F2BB6CB2FBF3F3FB62FA6A18
S11323B03B6A1344FB627A68FB6CD31AF968BA6906
S11323C08A1A02FB03F2BB6CB2FBF3F37B627A6AF8
S11323D0BB6913447B627A68FB6CD31A3969FA6966
S11323E08A1A02FB03F2BB6CB2FBF3F3BB62BA6A58
S11323F0FB691344BB62FA6A7B699A4213D8FA6A8E
S11324003B6A9A420FD3BA6A3B699A420BD8BA6ABA
S1132410FB699A4207D37A6AFB689A4203D87A6ABC
S1132420BB699A4201D2002360E0BB78002B12D032
S1132430314A314BDB6D23F4FE4323F00203F96A86
S11324400902194397F84230002B01D0022300E01F
S113245000230B43D365FB78002B46D03B7A97F8D7
S11324604220104619460022FFF7BAFC034683F0C7
S11324700103DBB2002B01D0002337E07B7A97F80D
S11324804220104619460122FFF7AAFC034683F0B6
S11324900103DBB2002B01D0002327E07B6AFB633E
S11324A0BB6ABB63BA6BFB6B9A4228BF13467B6261
S11324B07B6A7B63E7233B633A6B7B6B9A4238BF4F
S11324C013467B620C4A0C4B5B6E23F4FF7323F0C0
S11324D00103796A4900194397F84230002B01D06F
S11324E0012300E000230B435366012318465037B1
S11324F0BD4680BDB081E00F00300E4080B584B091
S113250000AF78600023FB60314B1B6F03F00703BF
S1132510BB602F4BDB6C03F00103002B15D0BB68B1
S1132520012B12D97B68132B02D80423FB600BE028
S11325307B68132B05D97B68272B02D80823FB6003
S113254002E01023FB602DE02CE0214BDB6C03F058
S11325500103002B15D1BB68012B12D87B68092B12
S113256002D80423FB600BE07B68092B05D97B6848
S1132570132B02D80823FB6002E01023FB6011E058
S113258010E0134BDB6C03F00103002B0AD0BB6893
S1132590012B07D87B68272B02D80823FB6001E0B6
S11325A01023FB60FB68013BFB60FB681A02FB68BD
S11325B01B031343FB60064B054AD26C22F47F4194
S11325C0FA680A43DA64FFF765FB1037BD4680BD3D
S11325D000300E4080B584B000AF0346FB710F4855
S11325E00021FFF7D7F8F860FB68002B02D1FB79D4
S11325F0012B02D9FB68002B00D000BF084B084A0E
S1132600126F22F00701FA790A431A67054B1B88F7
S11326101846FFF773FF1037BD4680BD4C300E409F
S113262000300E409E00002080B485B000AF78607A
S113263039607B6803F1C063FB60FB683A681A6029
S11326401437BD465DF8047B704700BF80B485B085
S113265000AF786039607B6803F18063FB60FB68DE
S11326603A681A601437BD465DF8047B704700BFB2
S113267080B584B000AFF860B9607A60F868B96872
S1132680FFF7E4FFF8687968FFF7CEFF1037BD461F
S113269080BD00BF80B582B000AF03463960FB71D6
S11326A0FB79002B1CD0FB79012B19D0FB79022B71
S11326B016D0FB79032B13D0FB79042B10D0FB79B4
S11326C0052B0DD0FB79062B0AD0FB79072B07D0FD
S11326D0FB79082B04D0FB79092B01D0FB790A2B59
S11326E0FA7913465B0013441B010C3303F1804356
S11326F003F520433A68012101FA02F21846114613
S1132700FFF7A4FF0837BD4680BD00BF80B582B087
S113271000AF03463960FB71FB79002B1CD0FB79B9
S1132720012B19D0FB79022B16D0FB79032B13D084
S1132730FB79042B10D0FB79052B0DD0FB79062BEC
S11327400AD0FB79072B07D0FB79082B04D0FB793F
S1132750092B01D0FB790A2BFA7913465B00134449
S11327601B010C3303F1804303F520433A68012134
S113277001FA02F218461146FFF756FF0837BD4624
S113278080BD00BF80B582B000AF03463960FB71E5
S1132790FB79002B1DD0FB79012B1AD0FB79022B7E
S11327A017D0FB79032B14D0FB79042B17D0FB79BA
S11327B0052B0ED0FB79062B11D0FB79072B0ED0FD
S11327C0FB79082B05D0FB79092B02D0FB790A2B66
S11327D005D13B6823F00113002B00D100BFFA7927
S11327E013465B0013441B0103F1804303F52043AC
S11327F018464FF001113A68FFF73AFF0837BD4613
S113280080BD00BF90B585B000AFB9607B60034662
S1132810FB731346BB73FB7B002B1CD0FB7B012B90
S113282019D0FB7B022B16D0FB7B032B13D0FB7B35
S1132830042B10D0FB7B052B0DD0FB7B062B0AD081
S1132840FB7B072B07D0FB7B082B04D0FB7B092BDE
S113285001D0FB7B0A2BBB7B002B0DD07B68002BAC
S113286005D0FB7B1846B968FFF750FF04E0FB7BFB
S11328701846B968FFF70EFFBB68072B1DD82B4815
S1132880FA7B2A4CF97B0B465B000B441B01234467
S11328905968BB689B000F2404FA03F3DB43194017
S11328A0BC7BBB689B0004FA03F3194313465B002B
S11328B013441B010344596024E01C48FA7B1B4C5D
S11328C0F97B0B465B000B441B0123440833196856
S11328D0BB6803F18043083B9B000F2404FA03F315
S11328E0DB431940BC7BBB6803F18043083B9B007E
S11328F004FA03F3194313465B0013441B01034416
S113290008331960BB7B002B0DD17B68002B05D0ED
S1132910FB7B1846B968FFF7F9FE04E0FB7B184619
S1132920B968FFF7B7FE1437BD4690BD00A000405C
S113293080B487B000AFF860B9607A60FA68114B70
S11329409A4208D1BB68012B05D87B681B0C1B0479
S1132950002B00D100BFBB68002B02D0012B04D098
S11329600AE0FB6810337B6103E0FB6814337B618E
S113297000BF7B697A681A601C37BD465DF8047B2A
S1132980704700BF0060044080B483B000AF78603B
S11329900B46FB70FB78002B03D07B6801225A6046
S11329A002E07B6802225A600C37BD465DF8047B66
S11329B0704700BF80B485B000AF786039600023F1
S11329C0FB603B681B7883F00103DBB2002B08D06B
S11329D07B689B6803F00103002B02D07B68022212
S11329E05A603B685B78002B03D0FB6843F4805348
S11329F0FB603B689B78002B03D13B68DB68002BB2
S1132A0007D0FB6843F40073FB603B68DA687B68BB
S1132A101A613B68DB78002B03D0FB6843F48073B6
S1132A20FB603B681B79002B03D0FB6843F0400339
S1132A30FB603B685B79002B03D0FB6843F08003A9
S1132A40FB603B689B799B00FA681343FB603B681F
S1132A50DB791B01FA681343FB603B681B7AFA6855
S1132A601343FB607B68FA681A603B681B78002B91
S1132A7008D07B689B6803F00103002B02D17B68BC
S1132A8001225A601437BD465DF8047B704700BFCD
S1132A9080B500AF19480421FEF75AFA17480121FE
S1132AA0FDF7DCFE15480421FEF752FA1348012114
S1132AB0FDF7D4FE012000210022FEF73FFC052093
S1132AC001210122FEF73AFC002000210022FEF73A
S1132AD035FC0B480A21FEF73BFA09480121FDF7B2
S1132AE0BDFE08480121FDF7B9FE07480121FDF7A5
S1132AF0B5FE06480121FDF7B1FE80BD4041050049
S1132B0002001E0000250A0000350A008006160097
S1132B1080B500AF05204FF00111FFF733FE05200B
S1132B20042104220023FFF76DFE05204FF001115C
S1132B30FFF728FE0520052104220023FFF762FE8B
S1132B4080BD00BF80B483B000AF0346FB7197F92A
S1132B500730002B0BDB084B97F907205209F97952
S1132B6001F01F01012000FA01F143F822100C3793
S1132B70BD465DF8047B704700E100E080B485B099
S1132B8000AF786039607B6803F1C063FB60FB6869
S1132B903A681A601437BD465DF8047B704700BF7D
S1132BA080B485B000AF786039607B6803F18063DE
S1132BB0FB60FB683A681A601437BD465DF8047B15
S1132BC0704700BF80B582B000AF03463960FB7127
S1132BD0FB79002B1CD0FB79012B19D0FB79022B3C
S1132BE016D0FB79032B13D0FB79042B10D0FB797F
S1132BF0052B0DD0FB79062B0AD0FB79072B07D0C8
S1132C00FB79082B04D0FB79092B01D0FB790A2B23
S1132C10FA7913465B0013441B010C3303F1804320
S1132C2003F520433A68012101FA02F218461146DD
S1132C30FFF7B6FF0837BD4680BD00BF80B582B040
S1132C4000AF03463960FB71FB79002B1CD0FB7984
S1132C50012B19D0FB79022B16D0FB79032B13D04F
S1132C60FB79042B10D0FB79052B0DD0FB79062BB7
S1132C700AD0FB79072B07D0FB79082B04D0FB790A
S1132C80092B01D0FB790A2BFA7913465B00134414
S1132C901B010C3303F1804303F520433A680121FF
S1132CA001FA02F218461146FFF768FF0837BD46DD
S1132CB080BD00BF80B58AB000AF4FF47A733B6229
S1132CC0386A00F0CFFA02460B461046194600F067
S1132CD08DF902460B46104619464FF000023D4B53
S1132CE000F082F902460B461046194600F030FB0C
S1132CF003467B620023FB610123BB6122E0FB6985
S1132D000133FB613B6A5B083B62386A00F0AAFA54
S1132D1002460B461046194600F068F902460B4677
S1132D20104619464FF000022A4B00F05DF90246A6
S1132D300B461046194600F00BFB03467B62BB6949
S1132D405B00BB617B6AB3F5803FD8D23A6A134615
S1132D505B019B1A9B001A441F4BA3FB02139B09A4
S1132D607A6AD31A7B61BB69012B03D91B48B96901
S1132D70FDF7E2FE0023FB710123BB7100237B718D
S1132D8000233B7100233B7200237B7200233B73BF
S1132D900023BB720023FB723B1D11481946FFF749
S1132DA009FE0F4800217A6AFFF7C2FD0C48012191
S1132DB07A69FFF7BDFD0A4B03229A62084B03228E
S1132DC0DA62042000F0D4F81B20FFF7BBFE28379A
S1132DD0BD4680BD0000F03FD34D62108006160052
S1132DE00060044080B582B000AFFEF7A7FC0E4B34
S1132DF01B6A7B600C4B7A689A627B6803F002035F
S1132E00002B03D005200421FFF7DCFE7B6803F0D0
S1132E100103002B03D005200421FFF70FFFFEF769
S1132E2095FC0837BD4680BD0060044080B400AF07
S1132E30044BDB6C1B0EDBB21846BD465DF8047B0D
S1132E40704700BFB081E00F80B582B000AF154B72
S1132E5001225A64FFF7EAFF0346FB71FB79002B5A
S1132E600CD1114B4AF6E8521A60104B0F4A126803
S1132E7042F004021A600C4B00221A60FB79012B09
S1132E8005D80B4B0A4A126842F400521A60094BE7
S1132E90084A126A22F4441242F488121A62083769
S1132EA0BD4680BD00000E4090310E4098310E406A
S1132EB064310E4000400E40B0B58AB000AF04202B
S1132EC000F056F81F4B07F11804186859689A68FF
S1132ED0DB680FC41C4B3C1D1D4628686968AA6842
S1132EE0EB680FC42B8A2380FFF7AEFF00233B70EF
S1132EF000237B7007F118031846FFF701F902233A
S1132F007B703B461846FEF77FFE3B1D1846FEF7D6
S1132F10A3F911200421FEF71BF80320002100224D
S1132F20FEF70CFAFFF7B4FDFFF7F2FDFFF7C2FE60
S1132F3006480121FFF728FDFEF708FC00F02EF8F3
S1132F40FCE700BF5834000068340000006004400F
S1132F5080B400AF054B054A126922F004021A61DD
S1132F6030BFBD465DF8047B704700BF00ED00E054
S1132F7080B582B000AF7860FEF7E0FB064B7A685C
S1132F8053F82230591C044B7A6843F82210FEF798
S1132F90DDFB0837BD4680BDB400002080B500AF1E
S1132FA00E4B1B68002B00D017E00C4B5B68002B0A
S1132FB000D012E0094B9B68002B02D0FFF7C8FF3A
S1132FC00AE0064BDB68002B03D00120FEF74AFD24
S1132FD002E00120FEF76AFD00BF80BDB4000020BE
S1132FE081F0004102E000BF83F0004330B54FEAB6
S1132FF041044FEA430594EA050F08BF90EA020F23
S11330001FBF54EA000C55EA020C7FEA645C7FEAB5
S1133010655C00F0E2804FEA5454D4EB5555B8BFD8
S11330206D420CDD2C4480EA020281EA030382EA49
S1133030000083EA010180EA020281EA0303362DDB
S113304088BF30BD11F0004F4FEA01314FF4801CAE
S11330504CEA113102D0404261EB410113F0004FC0
S11330604FEA03334CEA133302D0524263EB430377
S113307094EA050F00F0A780A4F10104D5F1200E15
S11330800DDB02FA0EFC22FA05F2801841F1000170
S113309003FA0EF2801843FA05F359410EE0A5F144
S11330A020050EF1200E012A03FA0EFC28BF4CF075
S11330B0020C43FA05F3C01851EBE37101F000452B
S11330C007D54FF0000EDCF1000C7EEB00006EEB38
S11330D00101B1F5801F1BD3B1F5001F0CD34908C2
S11330E05FEA30004FEA3C0C04F101044FEA445219
S11330F012F5800F80F09A80BCF1004F08BF5FEAA0
S1133100500C50F1000041EB045141EA050130BD7F
S11331105FEA4C0C404141EB010111F4801FA4F122
S11331200104E9D191F0000F04BF01460020B1FA77
S113313081F308BF2033A3F10B03B3F120020CDAAF
S11331400C3208DD02F1140CC2F10C0201FA0CF08D
S113315021FA02F10CE002F11402D8BFC2F1200CF2
S113316001FA02F120FA0CFCDCBF41EA0C019040A8
S1133170E41AA2BF01EB0451294330BD6FEA0404F1
S11331801F3C1CDA0C340EDC04F11404C4F12002DC
S113319020FA04F001FA02F340EA030021FA04F3EE
S11331A045EA030130BDC4F10C04C4F1200220FA45
S11331B002F001FA04F340EA0300294630BD21FA83
S11331C004F0294630BD94F0000F83F4801306BF49
S11331D081F480110134013D4EE77FEA645C18BF3D
S11331E07FEA655C29D094EA050F08BF90EA020FD4
S11331F005D054EA000C04BF1946104630BD91EACC
S1133200030F1EBF0021002030BD5FEA545C05D1CE
S11332104000494128BF41F0004130BD14F580040D
S11332203CBF01F5801130BD01F0004545F0FE4181
S113323041F470014FF0000030BD7FEA645C1ABFB6
S1133240194610467FEA655C1CBF0B46024650EAED
S1133250013406BF52EA033591EA030F41F4002119
S113326030BD00BF90F0000F04BF0021704730B59F
S11332704FF4806404F132044FF000054FF0000174
S113328050E700BF90F0000F04BF0021704730B535
S11332904FF4806404F1320410F0004548BF40420A
S11332A04FF000013EE700BF42004FEAE2014FEA5F
S11332B031014FEA02701FBF12F07F4393F07F4F3A
S11332C081F06051704792F0000F14BF93F07F4F6C
S11332D0704730B54FF4607401F0004521F00041AF
S11332E020E700BF50EA010208BF704730B54FF035
S11332F000050AE050EA010208BF704730B511F03A
S1133300004502D5404261EB41014FF4806404F171
S113331032045FEA915C3FF4DCAE4FF003025FEAF3
S1133320DC0C18BF03325FEADC0C18BF033202EB7B
S1133330DC02C2F1200300FA03FC20FA02F001FAD5
S113334003FE40EA0E0021FA02F11444C1E600BF74
S11333504A0011D212F5001211D20DD56FF4787310
S1133360B3EB62520ED44FEAC12343F0004343EA65
S1133370505323FA02F070474FF00000704750EAB0
S1133380013002D14FF0FF3070474FF0000070471A
S113339008B5074B044613B10021AFF30080054B79
S11333A01868836A03B19847204600F033F800BFD9
S11333B0000000008034000070B50E4B0E4DED1A75
S11333C0AD1000241E46AC4204D056F82420904789
S11333D00134F8E700F020F8084D094BED1AAD1060
S11333E000241E46AC4204D056F8242090470134F1
S11333F0F8E770BD740000207400002078000020FD
S11334007400002002440346934202D003F8011BD7
S1133410FAE77047FEE700BFF8B500BFF8BC08BC88
S11334209E467047F8B500BFF8BC08BC9E4670477E
S113343040787D0100000000005A62020001000093
S1133440C0CF6A0002000000809FD5000201000086
S1133450002D3101020200000002080705000A00E5
S1133460C8000000FFFF010001000000A000680187
S11334700A200706020A04070000000043000000B7
S10B348014000020000000000C
S10B3488D8CCFF7F0100000015
S1133490005A620200800000C0EA2101C0EA210152
S11334A0C0EA21010000000000000000000000004C
S11334B00000000000000000000000000000000008
S11334C0000000007C340000000000000000000048
S11334D000000000000000000000000000000000E8
S11334E000000000000000000000000000000000D8
S11334F000000000000000000000000000000000C8
S113350000000000310100000D0100000000000077
S90301D526
